:020000040000fa
:080000000002040000000000f2
:020000040000fa
:0400080034030000bd
:020000040000fa
:04000c0034030000b9
:020000040000fa
:0400100034030000b5
:020000040000fa
:0400140034030000b1
:020000040000fa
:0400180034030000ad
:020000040000fa
:04001c0034030000a9
:020000040000fa
:0400200034030000a5
:020000040000fa
:0400240034030000a1
:020000040000fa
:04002800340300009d
:020000040000fa
:04002c003403000099
:020000040000fa
:040030003403000095
:020000040000fa
:040034003403000091
:020000040000fa
:04003800340300008d
:020000040000fa
:04003c003403000089
:020000040000fa
:040040003403000085
:020000040000fa
:04004400fa020000bc
:020000040000fa
:04004800340300007d
:020000040000fa
:04004c003403000079
:020000040000fa
:040050003403000075
:020000040000fa
:040054003403000071
:020000040000fa
:04005800340300006d
:020000040000fa
:04005c003403000069
:020000040000fa
:040060003403000065
:020000040000fa
:040064003403000061
:020000040000fa
:04006800340300005d
:020000040000fa
:04006c003403000059
:020000040000fa
:040070003403000055
:020000040000fa
:040074003403000051
:020000040000fa
:04007800340300004d
:020000040000fa
:04007c003403000049
:020000040000fa
:040080003403000045
:020000040000fa
:040084003403000041
:020000040000fa
:04008800340300003d
:020000040000fa
:04008c003403000039
:020000040000fa
:040090003403000035
:020000040000fa
:040094003403000031
:020000040000fa
:04009800340300002d
:020000040000fa
:04009c003403000029
:020000040000fa
:0400a0003403000025
:020000040000fa
:0400a4003403000021
:020000040000fa
:0400a800340300001d
:020000040000fa
:0400ac003403000019
:020000040000fa
:0400b0003403000015
:020000040000fa
:0400b4003403000011
:020000040000fa
:0400b800340300000d
:020000040000fa
:0400bc003403000009
:020000040000fa
:0400c0003403000005
:020000040000fa
:0400c4003403000001
:020000040000fa
:0400c80034030000fd
:020000040000fa
:0400cc0034030000f9
:020000040000fa
:0400d00034030000f5
:020000040000fa
:0400d40034030000f1
:020000040000fa
:0400d80034030000ed
:020000040000fa
:0400dc0034030000e9
:020000040000fa
:0400e00034030000e5
:020000040000fa
:0400e40034030000e1
:020000040000fa
:0400e80034030000dd
:020000040000fa
:0400ec0034030000d9
:020000040000fa
:0400f00034030000d5
:020000040000fa
:0400f40034030000d1
:020000040000fa
:0400f80034030000cd
:020000040000fa
:0400fc0034030000c9
:020000040000fa
:0401000034030000c4
:020000040000fa
:0401040034030000c0
:020000040000fa
:0401080034030000bc
:020000040000fa
:04010c0034030000b8
:020000040000fa
:0401100034030000b4
:020000040000fa
:0401140034030000b0
:020000040000fa
:0401180034030000ac
:020000040000fa
:04011c0034030000a8
:020000040000fa
:0401200034030000a4
:020000040000fa
:0401240034030000a0
:020000040000fa
:04012800340300009c
:020000040000fa
:04012c003403000098
:020000040000fa
:040130003403000094
:020000040000fa
:040134003403000090
:020000040000fa
:04013800340300008c
:020000040000fa
:04013c003403000088
:020000040000fa
:040140003403000084
:020000040000fa
:040144003403000080
:020000040000fa
:04014800340300007c
:020000040000fa
:04014c003403000078
:020000040000fa
:040150003403000074
:020000040000fa
:040154003403000070
:020000040000fa
:04015800340300006c
:020000040000fa
:04015c003403000068
:020000040000fa
:040160003403000064
:020000040000fa
:040164003403000060
:020000040000fa
:04016800340300005c
:020000040000fa
:04016c003403000058
:020000040000fa
:040170003403000054
:020000040000fa
:040174003403000050
:020000040000fa
:04017800340300004c
:020000040000fa
:04017c003403000048
:020000040000fa
:040180003403000044
:020000040000fa
:040184003403000040
:020000040000fa
:04018800340300003c
:020000040000fa
:04018c003403000038
:020000040000fa
:040190003403000034
:020000040000fa
:040194003403000030
:020000040000fa
:04019800340300002c
:020000040000fa
:04019c003403000028
:020000040000fa
:0401a0003403000024
:020000040000fa
:0401a4003403000020
:020000040000fa
:0401a800340300001c
:020000040000fa
:0401ac003403000018
:020000040000fa
:0401b0003403000014
:020000040000fa
:0401b4003403000010
:020000040000fa
:0401b800340300000c
:020000040000fa
:0401bc003403000008
:020000040000fa
:0401c0003403000004
:020000040000fa
:0401c4003403000000
:020000040000fa
:0401c80034030000fc
:020000040000fa
:0401cc0034030000f8
:020000040000fa
:0401d00034030000f4
:020000040000fa
:0401d40034030000f0
:020000040000fa
:0401d80034030000ec
:020000040000fa
:0401dc0034030000e8
:020000040000fa
:0401e00034030000e4
:020000040000fa
:0401e40034030000e0
:020000040000fa
:0401e80034030000dc
:020000040000fa
:0401ec0034030000d8
:020000040000fa
:0401f00034030000d4
:020000040000fa
:0401f40034030000d0
:020000040000fa
:0401f80034030000cc
:020000040000fa
:0401fc0034030000c8
:020000040000fa
:0402000034030000c3
:020000040000fa
:0402040034030000bf
:020000040000fa
:0402080034030000bb
:020000040000fa
:04020c0034030000b7
:020000040000fa
:0402100034030000b3
:020000040000fa
:0402140034030000af
:020000040000fa
:0402180034030000ab
:020000040000fa
:04021c0034030000a7
:020000040000fa
:0402200034030000a3
:020000040000fa
:04022400340300009f
:020000040000fa
:04022800340300009b
:020000040000fa
:04022c003403000097
:020000040000fa
:040230003403000093
:020000040000fa
:04023400340300008f
:020000040000fa
:04023800340300008b
:020000040000fa
:04023c003403000087
:020000040000fa
:040240003403000083
:020000040000fa
:04024400340300007f
:020000040000fa
:04024800340300007b
:020000040000fa
:04024c003403000077
:020000040000fa
:040250003403000073
:020000040000fa
:04025400340300006f
:020000040000fa
:04025800340300006b
:020000040000fa
:04025c003403000067
:020000040000fa
:040260003403000063
:020000040000fa
:04026400340300005f
:020000040000fa
:100400002f0021000eff27000e01880000000000d1
:10041000000020000000e000020032000001200087
:100420002002880014000700910007000000e0008f
:1004300003003a0060b920000100200002003700ec
:100440000000200001002000810f70000100320038
:100450000f000700000020000000e0000200320052
:100460000000020000000000260b02000000000057
:100470000040da000000fe00200020000000e00044
:1004800002003200100020009001880000000600e9
:10049000a1028800800478000000eb001f003700f4
:1004a000e284440054a0b4009905ba00e2844400f8
:1004b00054a0b4009906ba00e284440054a0b400e9
:1004c0000006eb00476fde00fd07b200ae018800ba
:1004d000636ce10003003a000ad801000000eb0061
:1004e0000e003700606ce10008003a00004deb00a0
:1004f0000a05e800020039003420ec000af0a000f0
:100500008b05e900f9ff3e00040037006168e10057
:10051000010032000086eb000b00070019c7ba008b
:100520000e04e0001905ba0003003a000a00e000da
:10053000dbff3a0000000600fe07b200ae028800b2
:100540008a047800f5ff37000cd0a300e20f4d00bd
:100550001c003b0089027800354dba000a05e8000e
:10056000020039003420ec000af0a0008b05e900fd
:100570000f003200254dba000a05e80002003900dc
:100580003420ec000af0a0008b05e90008003200de
:100590000c00e0000600320015cdba000a05e800a4
:1005a000020039003420ec000af0a0008b05e900bd
:1005b0008984e80054a0b4000b00e000e2ff3a0098
:1005c000000006009902ba00055d78008b05e9007d
:1005d000f7ff3200c82ade00055d78008b05e900d0
:1005e000f3ff32000c00e000f1ff320019ddba0029
:1005f000eeff3700809fbe003200f8003400f800a4
:1006000010002000a00188001000200000d0fe0093
:100610000000fa0000e8a9002173800000202000fb
:100620000080600000f0a7000000ea000000e90080
:100630004f00de00004078000080fb006100600099
:100640004900dd00217380000190a10001007000cd
:10065000207388000080fa003400f9003200f900ad
:100660004f00be00004006000040da000000fe001f
:1006700000000500140020009a0237000001be00af
:100680001c0007000470a70003f0a10003f8a300fa
:1006900013003a006509b10010003200090035006e
:1006a0006928e10002003500010028000000050073
:1006b00000004000818048008502e900fcff3a000c
:1006c00000000600f88f4200050035008100d100cf
:1006d0000080d3008502e800fcff3a00000006001d
:1006e0008000eb00000005004f89de0082017800e9
:1006f00097023700c70ade00f107b200f50fb2001b
:1007000008003200e1cf4200020032000170a00078
:1007100024000500810f700001003200040805006c
:1007200044000500810f700002003a00140005002b
:100730008502e9000000400081c04800fcff3b004a
:100740000170a00024000500889fbe008a9fbe00a3
:100750008c9fbe001b0020000202be0005866800c0
:1007600006002800060666004709de00f20fb20008
:10077000820032000243e80080003200c729de0018
:10078000f30fb2007d0032000343e8007b0032002b
:10079000f107b2000170a000f507b2000570a000db
:1007a000c708dd004903de00868070004700dd00d9
:1007b000c72add004923de00868272004722dd0061
:1007c00003055100040350008583580003003100e5
:1007d00000004000818048000a05e9008c1f780075
:1007e0008a9fbe0004005000858058000402420029
:1007f00085824a0000004000818048000005eb002f
:100800000004be006033b8000406be000d48e100dd
:1008100056003100110009004dccd8000c01b80081
:100820000d02b8008481410060824a008283530037
:1008300003045c0084845c0060055d000a00e00045
:1008400025003a00800578000d40e10049003100a4
:100850008800780007007800110009004d88d80052
:100860000c01b8000d02b8008481410060824a008a
:100870006003110083835b0004045c00e0845c007f
:100880000900e00021003a004f01be000300e00033
:100890002b003200e3016000070673008c817100b9
:1008a00001003200640070004200de004e5edd0098
:1008b0000c007000c258de0001e0a00083010700b8
:1008c000cf017800818071004f06be004f05be0049
:1008d0004f04be00000006008c8343000d044c0052
:1008e000e0844c0060054d000000e9000a00e000d3
:1008f000d4ff32008c8343000d044c00e0844c0094
:1009000060054d000000e900ceff37000c034300f6
:100910008d834b0060044c00e0844c000000e90033
:100920000900e000d8ff32000c0343008d834b0028
:1009300060044c00e0844c000000e900d2ff370066
:100940004200de004e5edd000c007000c258de008a
:1009500001e0a000cf0178000300e000daff3200e0
:1009600060001000e0801800d7ff3700f0ff2f0074
:10097000aaff3700f0ff2f00b9ff37000404be00c4
:100980002f010700870678000004fd008104fd00a8
:100990002b010700078366000678a30003003200de
:1009a0000960a7000800be002c0037000d78a300e6
:1009b000020032000800be00280037000778a300bc
:1009c00026003a0001f0a10009f0a1000668a3008a
:1009d00003003200f1ff2700f0ff2f00baff3700bd
:1009e0000d68a300030032000800be008c80700078
:1009f000b5ff37000768a30007003a000648a300c8
:100a000003003200f1ff2700f0ff2f00aeff370098
:100a10000d48a300030032006000b8008c80700015
:100a2000a9ff37000748a3000400320001f827009f
:100a3000000020008c807000a3ff370076010700c3
:100a40000004fd008104fd0002057800720107002a
:100a50000802be008a01780059ff37000160a0003b
:100a6000120220000280880097ff37000100e0009a
:100a7000120032000500e00010003200889fbe0026
:100a80008a9fbe008c9fbe000006eb0001f8a30009
:100a90000300320060001000e08018000cf0a0009d
:100aa00005f8a3000300320060021200e0821a0081
:100ab0000cf0a2008005eb0041ff37006000b80099
:100ac0000200050003836800070028000703630095
:100ad000470ade000480a100c71ade000580a100dd
:100ae000f70f20000720e100420032000728e10054
:100af00040003200889fbe008a9fbe008c1f780095
:100b0000f107b200f307b2000400e0006400320015
:100b10000170a0000500e000680032000370a00032
:100b200085054200eb07b1000204b8000302b800db
:100b30008484440060854a00020ab800848444002a
:100b40000a854a00030ab800040545000400330082
:100b50000804d0008984d2000a85d2008b05e90000
:100b60006158e1003d0035000210200009016100dc
:100b70000308200089816100f70720008783640053
:100b800008867300c84cde00c853dd0087847400fb
:100b90004855de000300e0000600320082037600c4
:100ba000040032008904e80060054d000a88a300b3
:100bb0000c003a00f70f20000758e10044003d0008
:100bc0000a70a100c75ddd000a8575008a00730008
:100bd000090078004f0678004f05be004f04be00a4
:100be000000006000a05d1008984d3008b05e800c7
:100bf000f0ff3700881f7800060478009000070097
:100c0000070278000001fd008101fd008c00070053
:100c100087027800850372000778a3000500320080
:100c20000001fd008101fd009f0007004f047800d6
:100c300000000600850372000748a300030032008d
:100c4000f0ff2f00f1ff2700f8ff37000000200021
:100c500001f8270088807000f4ff370088017800d1
:100c60004848dd00808171004848de00c850dd0042
:100c700001007000c850de00060478000b01780007
:100c80001600070088807000d2ff37000500e000e2
:100c900005003200170020003a0007009dff3700d2
:100ca00081037000f9ff3a00860078004f06780053
:100cb0004f05be004f04be00000005008303710015
:100cc000f9ff3200270020002e00070094ff3700b4
:100cd00001f8270086807000f4ff37000100e00073
:100ce00026003200610111007810e10023003c0071
:100cf0006022b8007010e100040035008002780026
:100d0000010078008000eb00700151000200e0005b
:100d10000900340070031100062add00822ade007b
:100d20008603dd00878272000200de00860bdd0094
:100d3000070070008208de0084817100f4ff270044
:100d400004826200848171000400280084826200b1
:100d50006102600005f0a600000006000482710038
:100d6000070032000000e800e080480000000600b4
:100d70000002be006000b800efff37006000b8005e
:100d800000000600889fbe000004eb006138e1000f
:100d900016003a000100e00008003a00c800de003a
:100da0004800dd00880020000100e00003003a0058
:100db000c800de004800dd00680444008184cf00e4
:100dc000e9845400060034008908dd00f083140033
:100dd0008703de00878070000900dd0009044400fd
:100de000610214004f04be00000006000300e00092
:100df00008003a00c811de004811dd00880020001c
:100e00000300e00003003a00c811de004811dd00d5
:100e1000680444008384cf00e98454000600340051
:100e20008919dd00f08314008713de0087817100cb
:100e30000911dd0009044400e1021400e9ff370054
:100e40002700200001f0a70017002000470bde005c
:100e5000f60fb200040032000643e8000a00320038
:100e60004702b3000000060001037800f607b20055
:100e70000603700002003a000703b30000000600fa
:100e80008702b3000000060001037800f607b200f5
:100e900006037000020032000770a0000000060088
:100ea0000760a000000006000478a30004003200e0
:100eb0000578a300030032000168a30001003a0096
:100ec0000200be000160a000000006008101700069
:100ed000270032008002eb0001f8a300030032007b
:100ee00060001000e080180015002000f4072000ca
:100ef0000202420020003400f70320008703600054
:100f000006042000000363000208200000016100c5
:100f10004700de00c909dd0000807100c708de005f
:100f20000600e0000800320087037100060032006e
:100f30001000b0000180b0000188a3000200320060
:100f4000c108de000402e800f107b200f30f200040
:100f50000320e10003003d004722dd008100720014
:100f60002900370001f827000000eb0026003700b9
:100f70006000b80000000600680212007f20e10057
:100f8000020034006000b8001f0037006011b80094
:100f90007020e10004003500800178000100780035
:100fa0008000eb00700252000400e00009003400f1
:100fb000f00312000719dd008419de000703dd00cd
:100fc000868171000400de00070bdd000600700062
:100fd0008408de00f7ff2700838363008703710026
:100fe0000600280003036300070032000700e0004a
:100ff00003003a00610160000281730002003200c8
:101000001000b0000180b0000500a600000006003e
:1010100001f0a000000006004f0ade004709de00d4
:10102000f107b200f20fb2000b003200f207b1007c
:101030000170a000c708dd00c901de0083807000d8
:101040004700dd000400a60000000600600010005c
:10105000e080180000000600810f700001003a00d7
:10106000000006008182cf000500e00010003e0075
:101070008082cf00ee8242007028e1000400390037
:1010800007003e00800078000000eb000e003700f3
:10109000708312008600de000500dd000a003700c4
:1010a000708352008600dd000000eb000600370070
:1010b000e28252008508dd00708312000603de0024
:1010c000868070000500dd007507b0000501ea00ac
:1010d0000400a6000000060060001000e080180078
:1010e00000000600889fbe008a9fbe00841f780013
:1010f0007c0007004f00780011003300f0ff2f0044
:10110000838f6c0006003b00040565000a00a70001
:101110000800370009f0a600100020000800370082
:10112000820f5400838f5c00030039001000200000
:1011300001003e000000200009f0a7000000ea00c6
:101140004f05be004f04be000000e0000000060096
:10115000881f7800030478000300e00007003d00ca
:1011600060001000e080180060011900e0811900a3
:1011700002003b0001f02d000300370004000700cf
:1011800008f0a70001f0a0004f047800000006005e
:10119000889fbe008a9fbe0000827000040271001a
:1011a00004827100260032000004be000200be006e
:1011b0006011b8006b092000950220000182cf0069
:1011c0000a0039000541b1000082cf000700390054
:1011d0000541b1000982cf00040039000541b1008a
:1011e0000882cf00010039000541b10005425200dc
:1011f000120032000a003b0082817100610164002c
:101200008100d1000080d3008984d3000884d300fa
:101210008b05e8000442e800f7ff3a0007003700ba
:101220000804440089844c00000048008180480084
:101230008b05e9000442e900f9ff3a0003000700ca
:101240004f05be004f04be000000060081002000d4
:10125000618055000b003d000b00200061fe2f0057
:101260000100e1001d003400828171006101640011
:101270008904d1000884d3000000e800faff3a0096
:101280007100200061006400030070000200600033
:101290000900320061044400e0844c000988a50084
:1012a000050032008b05e8006808e10002003a0002
:1012b0008904d1000884d300f20f20000258e10015
:1012c00005003d00c75ddd00f907b20089807500ab
:1012d00008007800000006000bf827008b0078005b
:1012e000000005000004be0002fd07000003be0070
:1012f0000405be000200be00fefc0700844f75001e
:0413000000000600e3
:020000040000fa
:101304000c00fa00889fbe0040079800510798001f
:101314005e009000cf80de00f2fc07000200200097
:10132400a347240007fd07000240220043b724001e
:10133400e3fd0700020020000300240001fd070074
:1013440002f02f00f3772400fefc0700200798002a
:101354003107980018c0b3000200200003f82300ee
:101364002e009000be009000c1fc07000000e000c9
:10137400010034000044eb000804e00005003200e2
:1013840010002000000f78000000eb001007980008
:101394002f00370018c0b3000200200003102400ff
:1013a4002e009000be009000b1fc07000000e00099
:1013b400010034000044eb000804e00005003200a2
:1013c40080002000000f7800100020001007980013
:1013d4001f00370018c0b3000200200003282400b7
:1013e4002e009000be009000a1fc07000000e00069
:1013f400010034000044eb000804e0000500320062
:1014040000042000000f780020002000100798003e
:101414000f00370018c0b300020020000338240076
:101424002e009000be00900091fc07000000e00038
:10143400010034000044eb000804e0000400320022
:1014440000102000000f78003000200010079800e2
:101454004e009000e10f500003003200e20f5000f4
:1014640029003200520037000021ef005e00900096
:10147400cf80de009bfc070002002000a34724006d
:10148400b0fc07000240220043b724008cfd070093
:101494000200200003002400aafc07000004be0090
:1014a4001e007800cf80de008efc07000001be0025
:1014b4000800be00a3fc07006ffc070000007800d2
:1014c4001008880005e1a9001e0090000040780083
:1014d400634060000080fb00630060004400dd00a6
:1014e40022088000f1fc2f008100610001007000df
:1014f400200888000421a90004c1a9000068a900eb
:1015040005e1a8002a0037000621ef005e009000e4
:10151400cf80de0073fc070002002000a3472400f4
:1015240088fc07000240220043b7240064fd070042
:10153400020020000300240082fc07000004be0017
:101544001e007800cf80de0066fc07000001be00ac
:101554000800be007bfc070047fc07000000780081
:101564006008880011e1a9001e0090000040780086
:10157400634060000080fb00630060004400dd0005
:1015840082088000f1fc2f008100610001007000de
:10159400800888001021a90010c1a9001061a900c9
:1015a40020e8a80000e8a90011e1a800000000005c
:1015b4004f04be000080fa00000006000200fa009a
:1015c400000f78001e007800e10f50000300320085
:1015d400e20f5000080032000f0037000000000046
:1015e40000408000680060000000e000fcff320062
:1015f4000068a900080037000000000001408000d6
:1016040000082000008060000000e000fbff3200c2
:1016140000e8a900000000000080fa0000000600b5
:101624000400fa00000f7800110798009e00900053
:101634001e00780032ff07001e007800dfff07005d
:101644000080fa00000006000000fa006e2eef0091
:10165400707380007072880070728000f07188006e
:10166400f07180007071880070718000f0708800e3
:10167400f07080007070880060002000303a8800ac
:10168400213a8000f0f32f0000806000203a8800a7
:10169400213a800000fe2f0000806000203a88007c
:1016a40040a7a90000000000113a800000022000b9
:1016b400008060000000e000fbff320020e8a8008a
:1016c400c3e8a800c228a800000ea900040ea800c0
:1016d400612ea900652ea900a10f20002000200082
:1016e40007ff0700017d200010002000ccff070049
:1016f400207080006100600000f0a7000000ea0094
:101704000000e9004f00de00004078000080fb008c
:1017140061006000217080000100a10001007000e0
:0817240020708800efff370080
:020000040000fa
:10172c00001000000200000080000000000000001b
:020000040000fa
:0200000401f009
:04000800cfffff0027
:020000040000fa
:0200000401f009
:04000c00fbffff00f7
:020000040000fa
:0200000401f009
:04001000bdffff0031
:020000040000fa
:0200000401f009
:040014007fffff006b
:020000040000fa
:0200000401f009
:04001800ffffff00e7
:020000040000fa
:0200000401f009
:04001c00dfffff0003
:020000040000fa
:0200000401f009
:04002000cfffff000f
:00000001FF
