:020000040000fa
:080000000002040000000000f2
:020000040000fa
:04000800b60300003b
:020000040000fa
:04000c00b603000037
:020000040000fa
:04001000b603000033
:020000040000fa
:04001400b60300002f
:020000040000fa
:04001800b60300002b
:020000040000fa
:04001c00b603000027
:020000040000fa
:04002000b603000023
:020000040000fa
:04002400b60300001f
:020000040000fa
:04002800b60300001b
:020000040000fa
:04002c00b603000017
:020000040000fa
:04003000b603000013
:020000040000fa
:04003400b60300000f
:020000040000fa
:04003800b60300000b
:020000040000fa
:04003c00b603000007
:020000040000fa
:04004000b603000003
:020000040000fa
:04004400b6030000ff
:020000040000fa
:040048006a03000047
:020000040000fa
:04004c00b6030000f7
:020000040000fa
:04005000b6030000f3
:020000040000fa
:040054001a0300008b
:020000040000fa
:04005800b6030000eb
:020000040000fa
:04005c00b6030000e7
:020000040000fa
:04006000b6030000e3
:020000040000fa
:04006400b6030000df
:020000040000fa
:04006800b6030000db
:020000040000fa
:04006c00b6030000d7
:020000040000fa
:04007000b6030000d3
:020000040000fa
:04007400b6030000cf
:020000040000fa
:040078004c03000035
:020000040000fa
:04007c00b6030000c7
:020000040000fa
:04008000b6030000c3
:020000040000fa
:04008400b6030000bf
:020000040000fa
:04008800b6030000bb
:020000040000fa
:04008c00b6030000b7
:020000040000fa
:04009000b6030000b3
:020000040000fa
:04009400b6030000af
:020000040000fa
:04009800b6030000ab
:020000040000fa
:04009c00b6030000a7
:020000040000fa
:0400a000b6030000a3
:020000040000fa
:0400a400b60300009f
:020000040000fa
:0400a800b60300009b
:020000040000fa
:0400ac00b603000097
:020000040000fa
:0400b000b603000093
:020000040000fa
:0400b400b60300008f
:020000040000fa
:0400b800b60300008b
:020000040000fa
:0400bc00b603000087
:020000040000fa
:0400c000b603000083
:020000040000fa
:0400c400b60300007f
:020000040000fa
:0400c800b60300007b
:020000040000fa
:0400cc00b603000077
:020000040000fa
:0400d000b603000073
:020000040000fa
:0400d400b60300006f
:020000040000fa
:0400d800b60300006b
:020000040000fa
:0400dc00b603000067
:020000040000fa
:0400e000b603000063
:020000040000fa
:0400e400b60300005f
:020000040000fa
:0400e800b60300005b
:020000040000fa
:0400ec00b603000057
:020000040000fa
:0400f000b603000053
:020000040000fa
:0400f400b60300004f
:020000040000fa
:0400f800b60300004b
:020000040000fa
:0400fc00b603000047
:020000040000fa
:04010000b603000042
:020000040000fa
:04010400b60300003e
:020000040000fa
:04010800b60300003a
:020000040000fa
:04010c00b603000036
:020000040000fa
:04011000b603000032
:020000040000fa
:04011400b60300002e
:020000040000fa
:04011800b60300002a
:020000040000fa
:04011c00b603000026
:020000040000fa
:04012000b603000022
:020000040000fa
:04012400b60300001e
:020000040000fa
:04012800b60300001a
:020000040000fa
:04012c00b603000016
:020000040000fa
:04013000b603000012
:020000040000fa
:04013400b60300000e
:020000040000fa
:04013800b60300000a
:020000040000fa
:04013c00b603000006
:020000040000fa
:04014000b603000002
:020000040000fa
:04014400b6030000fe
:020000040000fa
:04014800b6030000fa
:020000040000fa
:04014c00b6030000f6
:020000040000fa
:04015000b6030000f2
:020000040000fa
:04015400b6030000ee
:020000040000fa
:04015800b6030000ea
:020000040000fa
:04015c00b6030000e6
:020000040000fa
:04016000b6030000e2
:020000040000fa
:04016400b6030000de
:020000040000fa
:04016800b6030000da
:020000040000fa
:04016c00b6030000d6
:020000040000fa
:04017000b6030000d2
:020000040000fa
:04017400b6030000ce
:020000040000fa
:04017800b6030000ca
:020000040000fa
:04017c00b6030000c6
:020000040000fa
:04018000b6030000c2
:020000040000fa
:04018400b6030000be
:020000040000fa
:04018800b6030000ba
:020000040000fa
:04018c00b6030000b6
:020000040000fa
:04019000b6030000b2
:020000040000fa
:04019400b6030000ae
:020000040000fa
:04019800b6030000aa
:020000040000fa
:04019c00b6030000a6
:020000040000fa
:0401a000b6030000a2
:020000040000fa
:0401a400b60300009e
:020000040000fa
:0401a800b60300009a
:020000040000fa
:0401ac00b603000096
:020000040000fa
:0401b000b603000092
:020000040000fa
:0401b400b60300008e
:020000040000fa
:0401b800b60300008a
:020000040000fa
:0401bc00b603000086
:020000040000fa
:0401c000b603000082
:020000040000fa
:0401c400b60300007e
:020000040000fa
:0401c800b60300007a
:020000040000fa
:0401cc00b603000076
:020000040000fa
:0401d000b603000072
:020000040000fa
:0401d400b60300006e
:020000040000fa
:0401d800b60300006a
:020000040000fa
:0401dc00b603000066
:020000040000fa
:0401e000b603000062
:020000040000fa
:0401e400b60300005e
:020000040000fa
:0401e800b60300005a
:020000040000fa
:0401ec00b603000056
:020000040000fa
:0401f000b603000052
:020000040000fa
:0401f400b60300004e
:020000040000fa
:0401f800b60300004a
:020000040000fa
:0401fc00b603000046
:020000040000fa
:04020000b603000041
:020000040000fa
:04020400b60300003d
:020000040000fa
:04020800b603000039
:020000040000fa
:04020c00b603000035
:020000040000fa
:04021000b603000031
:020000040000fa
:04021400b60300002d
:020000040000fa
:04021800b603000029
:020000040000fa
:04021c00b603000025
:020000040000fa
:04022000b603000021
:020000040000fa
:04022400b60300001d
:020000040000fa
:04022800b603000019
:020000040000fa
:04022c00b603000015
:020000040000fa
:04023000b603000011
:020000040000fa
:04023400b60300000d
:020000040000fa
:04023800b603000009
:020000040000fa
:04023c00b603000005
:020000040000fa
:04024000b603000001
:020000040000fa
:04024400b6030000fd
:020000040000fa
:04024800b6030000f9
:020000040000fa
:04024c00b6030000f5
:020000040000fa
:04025000b6030000f1
:020000040000fa
:04025400b6030000ed
:020000040000fa
:04025800b6030000e9
:020000040000fa
:04025c00b6030000e5
:020000040000fa
:04026000b6030000e1
:020000040000fa
:04026400b6030000dd
:020000040000fa
:100400006f2521000eff27000e018800000000006c
:10041000000020000000e000020032000001200087
:100420002002880014000700830107000000e0009c
:1004300003003a00c06125000100200002003700df
:100440000000200001002000810f70000100320038
:100450000f000700000020000000e0000200320052
:100460000000020000000000ec5502000000000047
:100470000040da000000fe00600320000000e00001
:1004800002003200002020009001880000000600d9
:10049000a1028800800478000000eb001f003700f4
:1004a000e284440054a0b4009905ba00e2844400f8
:1004b00054a0b4009906ba00e284440054a0b400e9
:1004c0000006eb00476fde00fd07b200ae018800ba
:1004d000636ce10003003a000ad801000000eb0061
:1004e0000e003700606ce10008003a00004deb00a0
:1004f0000a05e800020039003420ec000af0a000f0
:100500008b05e900f9ff3e00040037006168e10057
:10051000010032000086eb000b00070019c7ba008b
:100520000e04e0001905ba0003003a000a00e000da
:10053000dbff3a0000000600fe07b200ae028800b2
:100540008a047800f5ff37000cd0a300e20f4d00bd
:100550001c003b0089027800354dba000a05e8000e
:10056000020039003420ec000af0a0008b05e900fd
:100570000f003200254dba000a05e80002003900dc
:100580003420ec000af0a0008b05e90008003200de
:100590000c00e0000600320015cdba000a05e800a4
:1005a000020039003420ec000af0a0008b05e900bd
:1005b0008984e80054a0b4000b00e000e2ff3a0098
:1005c000000006009902ba00055d78008b05e9007d
:1005d000f7ff3200c82ade00055d78008b05e900d0
:1005e000f3ff32000c00e000f1ff320019ddba0029
:1005f000eeff3700e4200400000000009c390400f6
:10060000000000007a3b040000000000263a0400cd
:1006100000000000963a0400000000002a3b04009d
:100620000000000000000400000000009c390400ed
:10063000000000003600f800809fbe00829fbe00d0
:10064000849fbe00869fbe003200f8003400f80090
:1006500010002000a00188000020200000d0fe0033
:100660000000fa000168a900301180000040780005
:100670000c2407000080fa003400f9003200f90071
:100680004f03be004f02be004f01be004f00be0030
:100690003600f900004006003200f8003400f8008f
:1006a000881f780018002000a8018800082020007a
:1006b00008d0fe004f0478000000fa002288a9004c
:1006c00013e1a8000080fa003400f9003200f900bc
:1006d00000400600809fbe003200f8003400f800a1
:1006e00010002000a00188000020200000d0fe00a3
:1006f0000000fa000108a90011728000001020001b
:10070000008060000000e0000f003a0040808000a0
:1007100010007800e10f500004003a004080800093
:100720008000eb000108780007003700408080005f
:10073000100078000000e00003003a0040808000d4
:10074000110020000108780013e1a9000a21ef0040
:100750000288a9002288a8000080fa003400f9006d
:100760003200f9004f00be00004006000040da00f1
:100770000000fe000a00fa000000e00037003a0026
:1007800093928000e18f510003003200e28f51000c
:100790000e003a0009003700002220000000e000af
:1007a00001003a000040da002002e2000b003500b0
:1007b0002822ef0021e2a8000800370000232000d3
:1007c0000000e00001003a000040da003002e200e0
:1007d000020035003822ef0031e2a8000200780064
:1007e0001a003700040a2000e18f51000b003a0084
:1007f000030037000402e90002003a00030037005a
:10080000040a20002202ab00faff3200141180001b
:10081000050037000402e900020032003202ab009a
:10082000fcff320094118000610262000900320076
:10083000e18f510002003a003411800001003700be
:10084000b4118000845878000000e9000000e00046
:10085000e4ff3a00000051000800370023002000a8
:10086000b3bf9f00c0bf9f00d1bf9f00e2bf9f00ea
:100870006a805700091d07006fb897000080fa00d2
:10088000000006000a00fa0011002000b1bf9f001e
:10089000c0bf9f006a805700021d07004fb8970035
:1008a0000080fa00000006000a00fa00e20f500083
:1008b00034003e0090928000e10f500003003200af
:1008c000e20f500011003a000c0037000322200014
:1008d0000300e00001003a000040da002002e200dc
:1008e000020035002822ef0021e2a8002342ab00dd
:1008f0000d003a002342a8000b003700032320001c
:100900000300e00001003a000040da003002e2009b
:10091000020035003822ef0031e2a8003342ab007c
:1009200001003a003342a800820178000b00370032
:100930003102fb00e10f500004003a002322ab001b
:10094000feff3a0024118800030037003322ab0079
:10095000feff3a00a41188008301e9000300e000d3
:10096000f3ff3a00e10f500003003a002302ab000e
:10097000feff32000b0037003302ab00feff3200f7
:100980000800370033002000b3bf9f00c0bf9f00a6
:10099000d1bf9f00e2bf9f006a805700c31c0700c1
:1009a0006fb99700020078000080fa00000006008e
:1009b000889fbe0080047800a09280000000e000c4
:1009c00005003a000000eb000e0007000084eb0079
:1009d0000000e00008003500a89280000900e00057
:1009e0000500320009004400060007000000e00096
:1009f00001003d000084eb00080078004f04be00b9
:100a000000000600800078000100e00003003a00ca
:100a100000002000a0928800000005000080eb008c
:100a200002002000828f500002003e00a192880048
:100a30000000eb000000060000000500140020008c
:100a4000af033700f4ff2f00ad0337000001be00f5
:100a5000410007000470a70003f0a1006509b10080
:100a6000160032000d0035006828e1000600350050
:100a7000f0ff2f00f1ff27000300e00013003b0010
:100a800001002800000005000000400081804800af
:100a90008502e900fcff3a0008003700f88f4200a9
:100aa00002003c008000eb00000005008100d10046
:100ab0000080d3008502e800fcff3a000300e0005c
:100ac00002003b0060001000e080180000000600fb
:100ad0000001be00200007000470a70003f0a10081
:100ae00003f8a30013003a006509b10010003200ba
:100af000090035006928e1000200350001002800e6
:100b00000000050000004000818048008502e900e7
:100b1000fcff3a0000000600f88f42000500350097
:100b20008100d1000080d3008502e800fcff3a007c
:100b3000000006008000eb00000005004f89de0089
:100b400082017800890337006011b80097033700ed
:100b5000040020006a033700c70ade00f107b20074
:100b6000f50fb20008003200e1cf4200020032006f
:100b70000170a00024000500810f70000100320008
:100b80000408050044000500810f700002003a00cf
:100b9000140005008502e9000000400081c0480003
:100ba000fcff3b000170a0002400050007f82700af
:100bb000078361000638e10004003a00f7072000cf
:100bc000878361008703710001003a0003f0a200ef
:100bd000889fbe008a9fbe008c9fbe00470ade0031
:100be0000480a100c71ade000580a10007002800cc
:100bf0000785600087856100f70f20000720e1006e
:100c00009e0032000728e1009c00320001067800b7
:100c10000400e000b4003200f70720008780600085
:100c20000170a0000500e000c0003200f7072000be
:100c3000878161000370a000050652000f003a0092
:100c40000b50e1000b0032000308e10002003a0003
:100c50000200e1007e00320002045000838458004c
:100c6000040031000001fd008101fd008402fd004f
:100c70008a05fd006044b800210037000520e1002e
:100c800005003d000001fd008101fd008402fd0022
:100c90008a05fd00050652007a60e1000500350076
:100ca0000170a1004722dd00848070008a807000fe
:100cb000630037006044b800ef02660007ff2f00b2
:100cc000070666000500e00006003400f08312000d
:100cd0008714dd000511de00071bdd000601710031
:100ce0008519de007060e100050035000904780018
:100cf00082047800030178008001eb007006560042
:100d00000b50e10003003a000200400083804800dd
:100d10000400370060041400e0841c000200580046
:100d2000838058000188a300060032008100d100b2
:100d30000080d3008984d3000884d3000402e80033
:100d4000270037000178a30025003a000100e000e9
:100d5000030032008186cf00698656000a00370002
:100d60008c0020000000e00004003a000900780038
:100d7000880478000004eb00700252008086cf00e7
:100d80000d0646000c06e9007060e1000600350023
:100d90008000780009007800880478000004eb00e7
:100da00070065600700252000c00e0000c00340087
:100db0008c08dd00f00316000703de00868070005b
:100dc0000c00dd00074bde00060070008c4cdd00df
:100dd0000743de00868474000c44dd000c025200e0
:100de0006120e1002000350061016000070028005b
:100df00087816400f7ff270087836400070374007e
:100e00000300e00006003200820373000400320099
:100e10000000e800e08048000188a3000e003a00ce
:100e2000f70f20000720e1004a003d000170a100fb
:100e30004722dd00810072008a8070000000be0041
:100e40004f06be004f05be004f04be000000060066
:100e50006000b800faff37008100d1000080d300a5
:100e60000402e800eeff37000401780089017400f5
:100e7000a10107008a807000f1ff3700f701070029
:100e8000070278000001fd008101fd00f301070069
:100e900087027800850372000778a30004003200ff
:100ea0000001fd008101fd0006020700e4ff37009c
:100eb000850362000768a300080032000b50e100c0
:100ec00003003200f0ff2f00f1ff2700dcff3700a6
:100ed0000001fd008101fd00d9ff37000468a30077
:100ee000d7ff3200faff3700f8ff27008883600041
:100ef0000b003a000000e00009003a0083036400a0
:100f000082837300020032000200be00ccff370073
:100f10000b50e100ceff3a000200be00c8ff3700d0
:100f200014002000810064003eff3700f8ff270016
:100f30008883610004003a000200e00002003a00e9
:100f40008c007800beff370015002000830164008c
:100f500039ff370001f827000000200081007500ec
:100f6000b7ff3700889fbe008a9fbe008c9fbe00df
:100f70001b0020000202be00058668000600280053
:100f8000060666004709de00f20fb200820032005a
:100f90000243e80080003200c729de00f30fb200f0
:100fa0007d0032000343e8007b003200f107b2000d
:100fb0000170a000f507b2000570a000c708dd00b1
:100fc0004903de00868070004700dd00c72add008f
:100fd0004923de00868272004722dd0003055100ae
:100fe00004035000858358000300310000004000d6
:100ff000818048000a05e9008c1f78008a9fbe00a6
:1010000004005000858058000402420085824a0096
:1010100000004000818048000005eb000004be0095
:101020006033b8000406be000d48e10056003100f0
:10103000110009004dccd8000c01b8000d02b80019
:101040008481410060824a008283530003045c0073
:1010500084845c0060055d000a00e00025003a0021
:10106000800578000d40e1004900310088007800db
:1010700007007800110009004d88d8000c01b80065
:101080000d02b8008481410060824a0060031100b3
:1010900083835b0004045c00e0845c000900e000e2
:1010a00021003a004f01be000300e0002b00320097
:1010b000e3016000070673008c81710001003200bb
:1010c000640070004200de004e5edd000c00700027
:1010d000c258de0001e0a00083010700cf017800c4
:1010e000818071004f06be004f05be004f04be0058
:1010f000000006008c8343000d044c00e0844c008b
:1011000060054d000000e9000a00e000d4ff320055
:101110008c8343000d044c00e0844c0060054d00be
:101120000000e900ceff37000c0343008d834b0025
:1011300060044c00e0844c000000e9000900e0007d
:10114000d8ff32000c0343008d834b0060044c0039
:10115000e0844c000000e900d2ff37004200de00ce
:101160004e5edd000c007000c258de0001e0a00001
:10117000cf0178000300e000daff320060001000c9
:10118000e0801800d7ff3700f0ff2f00aaff3700dc
:10119000f0ff2f00b9ff37000404be002f01070045
:1011a000870678000004fd008104fd002b01070084
:1011b000078366000678a300030032000960a700d9
:1011c0000800be002c0037000d78a300020032009a
:1011d0000800be00280037000778a30026003a0068
:1011e00001f0a10009f0a1000668a300030032008d
:1011f000f1ff2700f0ff2f00baff37000d68a300b2
:10120000030032000800be008c807000b5ff37007c
:101210000768a30007003a000648a3000300320055
:10122000f1ff2700f0ff2f00aeff37000d48a300ad
:10123000030032006000b8008c807000a9ff370006
:101240000748a3000400320001f827000000200036
:101250008c807000a3ff3700760107000004fd00ba
:101260008104fd0002057800720107000802be003b
:101270008a01780059ff37000160a00012022000a7
:101280000281880097ff37000100e0001200320061
:101290000500e00010003200889fbe008a9fbe005b
:1012a0008c9fbe000006eb0001f8a3000300320093
:1012b00060001000e08018000cf0a00005f8a3000a
:1012c0000300320060021200e0821a000cf0a2005b
:1012d0008005eb0041ff37006000b8000200050008
:1012e000038368000700280007036300470ade0045
:1012f0000480a100c71ade000580a100f70f2000be
:101300000720e100420032000728e10040003200df
:10131000889fbe008a9fbe008c1f7800f107b20034
:10132000f307b2000400e000640032000170a00086
:101330000500e000680032000370a000850542004f
:10134000eb07b1000204b8000302b8008484440033
:1013500060854a00020ab800848444000a854a0075
:10136000030ab80004054500040033000804d00057
:101370008984d2000a85d2008b05e9006158e1001a
:101380003d00350002102000090161000308200023
:1013900089816100f7072000878364000886730055
:1013a000c84cde00c853dd00878474004855de0059
:1013b0000300e000060032008203760004003200e1
:1013c0008904e80060054d000a88a3000c003a007b
:1013d000f70f20000758e10044003d000a70a1000b
:1013e000c75ddd000a8575008a007300090078007a
:1013f0004f0678004f05be004f04be0000000600f7
:101400000a05d1008984d3008b05e800f0ff37007e
:10141000881f780006047800900007000702780013
:101420000001fd008101fd008c00070087027800ab
:10143000850372000778a300050032000001fd005b
:101440008101fd009f0007004f04780000000600a6
:10145000850372000748a30003003200f0ff2f004d
:10146000f1ff2700f8ff37000000200001f82700f7
:1014700088807000f4ff3700880178004848dd005c
:10148000808171004848de00c850dd000100700016
:10149000c850de00060478000b0178001600070033
:1014a00088807000d2ff37000500e00005003200a0
:1014b000170020003a0007009dff370081037000ed
:1014c000f9ff3a00860078004f0678004f05be000d
:1014d0004f04be000000050083037100f9ff3200d5
:1014e000270020002e00070094ff370001f8270096
:1014f00086807000f4ff37000100e0002600320013
:10150000610111007810e10023003c006022b80066
:101510007010e100040035008002780001007800be
:101520008000eb00700151000200e000090034006f
:1015300070031100062add00822ade008603dd002a
:10154000878272000200de00860bdd00070070005b
:101550008208de0084817100f4ff270004826200ab
:1015600084817100040028008482620061026000ae
:1015700005f0a6000000060004827100070032009a
:101580000000e800e0804800000006000002be0005
:101590006000b800efff37006000b80000000600f0
:1015a000889fbe000004eb006138e10016003a009d
:1015b0000100e00008003a00c800de004800dd003d
:1015c000880020000100e00003003a00c800de00af
:1015d0004800dd00680444008184cf00e9845400a1
:1015e000060034008908dd00f08314008703de0064
:1015f000878070000900dd000904440061021400c6
:101600004f04be00000006000300e00008003a009e
:10161000c811de004811dd00880020000300e00052
:1016200003003a00c811de004811dd0068044400e0
:101630008384cf00e9845400060034008919dd005a
:10164000f08314008713de00878171000911dd002b
:1016500009044400e1021400e9ff370027002000dc
:1016600001f0a70017002000470bde00f60fb200c4
:10167000040032000643e8000a0032004702b300cb
:101680000000060001037800f607b20006037000b0
:1016900002003a000703b300000006008702b3000f
:1016a0000000060001037800f607b2000603700090
:1016b000020032000770a000000006000760a000d2
:1016c000000006000478a300040032000578a3009f
:1016d000030032000168a30001003a000200be00ce
:1016e0000160a000000006008101700027003200a8
:1016f0008002eb0001f8a30003003200600010003c
:10170000e080180015002000f407200002024200cb
:1017100020003400f7032000870360000604200047
:101720000003630002082000000161004700de00a2
:10173000c909dd0000807100c708de000600e00076
:101740000800320087037100060032001000b0006c
:101750000180b0000188a30002003200c108de0051
:101760000402e800f107b200f30f20000320e100bb
:1017700003003d004722dd00810072002900370090
:1017800001f827000000eb00260037006000b800d9
:1017900000000600680212007f20e1000200340011
:1017a0006000b8001f0037006011b8007020e10031
:1017b0000400350080017800010078008000eb0013
:1017c000700252000400e00009003400f00312002f
:1017d0000719dd008419de000703dd008681710032
:1017e0000400de00070bdd00060070008408de0048
:1017f000f7ff27008383630087037100060028003a
:1018000003036300070032000700e00003003a0012
:101810006101600002817300020032001000b0001c
:101820000180b0000500a6000000060001f0a00045
:10183000000006004f0ade004709de00f107b20093
:10184000f20fb2000b003200f207b1000170a000ed
:10185000c708dd00c901de00838070004700dd009d
:101860000400a6000000060060001000e0801800e0
:1018700000000600810f700001003a000000060021
:101880008182cf000500e00010003e008082cf0082
:10189000ee8242007028e1000400390007003e009b
:1018a000800078000000eb000e003700708312000b
:1018b0008600de000500dd000a003700708352005c
:1018c0008600dd000000eb0006003700e2825200d7
:1018d0008508dd00708312000603de00868070003c
:1018e0000500dd007507b0000501ea000400a60050
:1018f0000000060060001000e080180000000600f4
:10190000889fbe008a9fbe00841f78007c0007006d
:101910004f00780011003300f0ff2f00838f6c0020
:1019200006003b00040565000a00a7000800370018
:1019300009f0a6001000200008003700820f5400b4
:10194000838f5c00030039001000200001003e007e
:101950000000200009f0a7000000ea004f05be00cb
:101960004f04be000000e00000000600881f780061
:10197000030478000300e00007003d006000100051
:10198000e080180060011900e081190002003b00ae
:1019900001f02d00030037000400070008f0a70045
:1019a00001f0a0004f04780000000600889fbe00f0
:1019b0008a9fbe00008270000402710004827100e0
:1019c000260032000004be000200be006011b80014
:1019d0006b092000950220000182cf000a00390027
:1019e0000541b1000082cf00070039000541b10078
:1019f0000982cf00040039000541b1000882cf0000
:101a0000010039000541b1000542520012003200c8
:101a10000a003b0082817100610164008100d100f5
:101a20000080d3008984d3000884d3008b05e800ac
:101a30000442e800f7ff3a000700370008044400ba
:101a400089844c0000004800818048008b05e90033
:101a50000442e900f9ff3a00030007004f05be0009
:101a60004f04be0000000600810020006180550088
:101a70000b003d000b00200061fe2f000100e10083
:101a80001d00340082817100610164008904d1006d
:101a90000884d3000000e800faff3a00710020003b
:101aa0006100640003007000020060000900320061
:101ab00061044400e0844c000988a5000500320060
:101ac0008b05e8006808e10002003a008904d100b3
:101ad0000884d300f20f20000258e10005003d0009
:101ae000c75ddd00f907b200898075000800780045
:101af000000006000bf827008b00780000000500ae
:101b00000004be0014fc07000003be000405be0074
:101b10000200be0010fc0700844f750000000600a4
:101b20004f02b000889fbe008a9fbe008c9fbe00ff
:101b30008e1f78000005be000204be00b2af9f00f9
:101b4000c3af9f00b2b79f00c3b79f00cfae97004f
:101b50000df0a10002067800e00f5600e08f5e0055
:101b6000c3033200faaf9f008bb79f000000200034
:101b700001f82300800f5500818f5d00bc03320007
:101b80008fb2970005f0a1007faa970094b79f003d
:101b9000a5b79f000000200001f82700800f520029
:101ba000818f5a0003003c00800f5600818f5e0039
:101bb000040034000a01be000800be0004fc070057
:101bc000b20337006033b8007fa997008fb1970048
:101bd000e00f5100e08f590029003d002600200051
:101be00007002000f0ff2f00f1b72400800f5600ff
:101bf000818f5e0022003c006033b800f0ff2f00b0
:101c0000f1f72300800f5600818f5e00330034000f
:101c100047e8de00cfe8de00f007b1000180b10048
:101c2000770110000c00be00820178008301e900fa
:101c3000030033008180d1000080d300fbff370018
:101c40000003be00020778000e07e900030033001e
:101c50000603430087834b00fbff37000601be00ed
:101c60006033b8008c0f51008d8f59001b003a0073
:101c70006103600062031300e0831b00170037005c
:101c80000000200001f82700800f5600818f5e00c1
:101c900012003a000000200001f82300800f5200db
:101ca000818f5a0072033200060034003fb0970063
:101cb000cfb09700e00f5000e08f580074033d0054
:101cc0006e0337003fb19700cfb19700e00f51008e
:101cd000e08f590069033d006900370000002000d3
:101ce00001f82300800f5600818f5e0009003a0042
:101cf0003fb29700cfb29700e00f5200e08f5a003a
:101d000060033d000a01be000000200001f823002e
:101d10005500370000002000010024003fb197006b
:101d2000cfb19700800f5100818f590003003a0016
:101d30000a01be000a00be004b033700000020006d
:101d400001f023003fb19700cfb19700800f510001
:101d5000818f590008003a007fa897008fb0970044
:101d6000e00f5000e08f5800030035000a00be006d
:101d700078030700450337000a00be00f4b79f0050
:101d800085bf9f00d6b79f00e7b79f00fb03070002
:101d90000200200003f827007fb297008fba970057
:101da0005fb39700efb39700820f5200838f5a0002
:101db00008003200e00f5200e08f5a0005003200a8
:101dc0000200200003f82300820f5200838f5a0084
:101dd0002d003a003fb19700cfb19700e00f5100be
:101de000e08f59000c003d000001be000000200003
:101df00001f82300f4b79f0085bf9f00d6b79f006e
:101e0000e7b79f0057fc07007fb297008fba970093
:101e10005fb39700efb397007fa997008fb197004a
:101e2000e00f5100e08f590018033d000200200030
:101e300003082c000402410085824900040273005b
:101e400085827300e00f5200e08f5a0008003a00cc
:101e500012022000729288000001be000200be0043
:101e600052fb07000001be003efc070007033700dd
:101e7000e10f5300e08f5b0004033a000004be0052
:101e800009f0a200020337007fa997008fb19700e5
:101e9000e00f5100e08f59000d003d00e00f5300ae
:101ea000e08f5b0004003a0010022000709288006e
:101eb0000a01be00e9ff3700e10f5300e08f5b002d
:101ec000080032000600200007f823000700370052
:101ed0000200200003f82300f2af9f0083b79f00a9
:101ee000040037000600200007f82b00f6af9f0023
:101ef00087b79f000200200003d02400820f560005
:101f0000838f5e005600340072ff2f00f3f723002a
:101f1000820f5200838f5a0006003c003fb09700aa
:101f2000cfb09700e00f5000e08f580007023d004f
:101f3000e50137007200200003f82300820f5200f1
:101f4000838f5a00060034003fb19700cfb197004d
:101f5000e00f5100e08f5900db013c00fb0137002e
:101f60000200200003f8230010fb07000005be005c
:101f700002a02a0083fb2300d9fc070090b79f0032
:101f8000a1b79f0002572a00c36e23000a00be00bb
:101f9000d3fc07000002be000a01be000a00be001a
:101fa000f4b79f0085bf9f00cdfc07000006be0070
:101fb0000200200003e823000a00be00c8fc07005e
:101fc0000001be00b0aa2a00a1ea2300f7fa070028
:101fd0000001be000a00be00c1fc07000001be00f7
:101fe0000000200001f02300f0fa07000001be000d
:101ff0000c00be00bafc0700b2a32a0083fb23003a
:10200000b7fc07000001be007fb297008fba9700af
:102010000400be00e5fa07000005be000001be0096
:102020001fb09700afb09700e9fa07000001be00ab
:102030008300780004002f00020062000003be004d
:10204000b6b79f00c7b79f001fb19700afb1970009
:10205000d6fa07000001be000a00be005901370091
:102060006011b800f6ff2f00f7072000860f52001e
:10207000878f5a0007003c000200200003b82400ac
:1020800097fc070090b79f00a1b79f0082fe2f002a
:10209000f3ff2f00f207b1000380b1002fb29700c9
:1020a00047a0de0084027800cfa8de0002034000d3
:1020b0008383480096af9f00a7af9f0085007800fc
:1020c000f107b2001fb097000200200003f82300c0
:1020d000020270008382700094b79f00a5b79f0032
:1020e0006033b800d6af9f00e7af9f0012472c00c7
:1020f000c3012000820f5000838f58001a00340063
:102100001200200003002000d2af9f00e3af9f0029
:10211000623d2b00d3052000820f5000838f5800b2
:10212000110034001faa9700afaa97006102420075
:10213000e0824a0094af9f00a5af9f0000002000fe
:1021400001f82f001fb39700afb3970006034000bc
:102150008783480096b79f00a7b79f006000b8002c
:10216000d0af9f00e1af9f00dfa89700c208dd005d
:1021700081af9f00a02121000100400010057800e0
:10218000900590000a01be001fb09700afb0970005
:1021900086fa07000006be000a01be001fb09700c5
:1021a000afb097008afa07000001be0000002000cf
:1021b00001f823006bfb07000002be000001be0017
:1021c0000c00be00f4b79f0085bf9f0044fc0700d1
:1021d0000003be000e002f0081017800c3b79f00ee
:1021e00000016700b2b79f005fa89700efa89700b3
:1021f000c500dd0000002000d0af9f00e1af9f00d0
:1022000000002000010420005fa99700efa99700bb
:102210000201400083814800d2af9f00e3af9f00de
:102220001fb09700afb097008181d1000081d3002b
:102230008300780001d0a1000200670001d0a00057
:102240005fa99700efa99700020140008381480031
:10225000d2af9f00e3af9f005fa99700efa997005f
:102260003fb09700cfb09700d6b79f00e7b79f0069
:102270001bfc07000001be000c00be004bfa07006b
:102280000006be000a01be005fa89700efa89700f5
:1022900046fa07000001be001fb09700afb09700dc
:1022a00042fa07000001be003fb09700cfb0970090
:1022b0000bfc07000001be000c00be003bfa07004b
:1022c0000001be007fb297008fba97000400be00e5
:1022d00003fc07000006be005fb39700efb3970052
:1022e0000601be000600be00fdfb07000005be00a3
:1022f0000001be00fafb07000002be0022142f00fe
:1023000033e523000a00be00f4b79f0085bf9f009d
:10231000f3fb070052252300c3e623002cfa070035
:102320000001be000a00be00edfb070052302a008b
:10233000b3e8230026fa07000001be000a00be0031
:10234000e7fb0700b2aa2a00a3ea230020fa07004d
:102350000001be000a00be00e1fb070072db2600a0
:10236000b3ed23001afa07000001be000a00be0008
:10237000dbfb0700a299290093f1230014fa070060
:102380000001be007fb297008fba97000400be0024
:10239000d3fb07000005be005fb39700efb39700c3
:1023a0000601be003fb09700cfb0970008fa0700c3
:1023b0000001be000c00be00c9fb07000001be000a
:1023c0000a00be0002fa070090b79f00a1b79f0065
:1023d0003fb19700cfb197000200be00c0fb0700dd
:1023e0000005be000200200003042400f8f90700e5
:1023f0001fb19700afb19700f5f90700810278008f
:10240000000267000401be003fb09700cfb0970004
:10241000f4b79f0085bf9f00b1fb0700b0b79f00d6
:10242000c1b79f007fb297008fba97000401be002a
:102430000c00be00aafb07000006be000200200040
:10244000030424007fb297008fba97000400be00f7
:10245000d6f907000a01be00d4f907000001be004a
:102460001fb09700afb09700d0f907005fb3970097
:10247000efb397000601be0099fb07000001be0004
:102480000c00be00d2f907000005be000001be002e
:102490003fb09700cfb09700cdf9070081027800d8
:1024a000000267000200240063f723000400be005e
:1024b000f4b79f0085bf9f0089fb070090b79f007e
:1024c000a1b79f00623c2200638f2b007fb2970070
:1024d0008fba97000400be0081fb07000006be0013
:1024e0003fb19700cfb197007fb297008fba9700a6
:1024f0000400be00adf907000001be000a00be00e6
:10250000aaf90700f284230063f7230074fb070095
:102510000001be000c00be00adf907002222210020
:102520008fab9700070141009201900012017800e3
:10253000a7f90700d0af9f00e1af9f001fa8970049
:10254000afa897007df907000006be00a022210079
:102550008fa99700030040001005780090059000b7
:102560005fa99700efa997001fb09700afb0970041
:1025700097f907000a01be0095f907000c01be009b
:1025800093f907000001be00830078000200670095
:102590000002be00b4b79f00c5b79f000c01be008b
:1025a00082f907000a01be0080f907001fb19700f9
:1025b000afb197007df907000001be005fa897004a
:1025c000efa8970079f907000005be00cfaa970091
:1025d00000002f00bfab9700070260000401be009f
:1025e0000800be00f4b79f0085bf9f006ff9070089
:1025f0003fb19700cfb1970039fb07000006be003e
:102600000a01be000800be0035fb07000001be0045
:102610000c00be006ef907000004be003fb1970039
:10262000cfb197007fb297008fba97000400be0029
:102630002bfb07000005be00b0b79f00c1b79f008d
:102640000a01be000800be0061f907000006be00d6
:102650000003be000000200001302400800f56005f
:10266000818f5e0018003c00800f5600818f5e0055
:102670001d003a00c2a32a00833323000800be00d5
:10268000dcb79f00e7b79f0051f907000002be00ca
:102690000a01be000c00be00f4b79f0085bf9f007a
:1026a00042f907000001be007fb297008fba970081
:1026b0000400be00e3f807005fb39700efb3970094
:1026c0000000e00029003400a22c2f009314270002
:1026d0007fa897008fb0970001fb0700a22c2f0066
:1026e00093142700e00037008701780003f0a10071
:1026f0000c0178000000200061312400800f51009f
:10270000818f590011003c000000200061312c0035
:10271000800f5600818f5e0014003a000a01be004f
:102720000c00be00dcb79f00e7b79f001ff9070051
:102730000001be000800be00c0f807005fb39700ac
:10274000efb397000000e00008003c0002262400e0
:1027500023da20007fa897008fb09700e0fa0700e7
:102760000226240023da2000bf003700870178000a
:1027700003f0a100060178006022b80000002000ec
:1027800001f02300800f5100818f59003a0034007e
:102790004798de0022f82f000001410000002000d1
:1027a000010820000201e900030033008180d1000c
:1027b0000080d300fbff37000000430081804b0006
:1027c000010678008c01780003f0a100479ade0032
:1027d000cf9ade000401be00f207b1000380b10011
:1027e000b2b79f00c3b79f00f4ff2f00f50720008a
:1027f000bfb197008301e900030033008582d10057
:102800000482d300fbff37000482ea008582ea00dd
:102810008501660000016200fd0720008d02660050
:10282000000278000570a0003fb7970077001700fe
:102830000000e900030033008582d1000482d30048
:10284000fbff3700e00f5300e08f5b0002003d000c
:1028500060021200e0821a000a00be00f4b79f0076
:1028600085bf9f00d1f80700b0b79f00c1b79f0098
:102870008fba97007fb297003fb19700cfb1970012
:102880000800be00f4b79f0085bf9f00d0f8070086
:10289000810678000200280000066100022027005f
:1028a00013f323000c00be008dfa07000005be00e4
:1028b0003fb19700cfb197000c00be00bbf80700f6
:1028c0000001be000800be00b8f807008221270002
:1028d00013f3230082fa07000004be00c2e82b00b5
:1028e000f35b23000c00be007dfa07000001be0070
:1028f0000800be00b6f807000006be000001be00da
:102900000a00be00b2f807000004be000a01be00c3
:10291000a6f807000001be000c00be00a3f80700e7
:10292000b0b79f00c1b79f000801be000800be00fd
:102930006bfa07000005be00c2b42b00133323005e
:1029400067fa0700e2a02e00d35d230097f8070086
:102950000001be000a00be0061fa070052352b00dc
:10296000a38823009af807000001be000a00be00f9
:102970005bfa070012b6200063b323008bf8070050
:102980000001be000a00be0055fa0700b2aa2a00e4
:10299000a3e223008ef807000001be000a00be007b
:1029a0004ffa07000001be000800be007ff80700d4
:1029b0000005be000001be000800be0048fa070086
:1029c0000006be0002002000030024000a00be0032
:1029d00076f807000001be000c00be0061f9070098
:1029e0000005be003fb19700cfb197000800be00c0
:1029f0003bfa07000001be003fb09700cfb0970040
:102a000073f807000001be000a00be0067f8070067
:102a10000801be0065f807000001be0000002000ac
:102a200001f8230061f807007fb297008fba970082
:102a3000c721dd0002002000020140008381480020
:102a4000479bde00cf9bde00e00f5300e08f5b0072
:102a500003003c0004017800140007000001be00e0
:102a60007fa897008fb097001dfa07000700370076
:102a70000800200009f82300050037006044b80072
:102a8000030037000a04be00010037000004be0046
:102a90000800be004f0778004f06be004f05be007d
:102aa0004f04be004f02b10000000600889fbe0028
:102ab00002047800f9072000890f54000d0034004b
:102ac0000200200003f0270005fa0700f807b10014
:102ad000890f5400170034000200200003f0270083
:102ae000fff90700f807b100890f540010003c00ff
:102af0001000370029f82f00890f54000d003d0009
:102b00000200200003c82000f5f907006806b000a5
:102b1000890f540007003d000200200003c8200078
:102b2000eff907006806b000890f540001003d006e
:102b300009047800f207200008014100cf91de006f
:102b4000c711dd0002002000e5f907004f04be00b8
:102b500000000600889fbe008a9fbe008c9fbe00ba
:102b60000004be000400200005f8270085836000f3
:102b700004037800840f5300858f5b0007003a0040
:102b80000801be000800be00d5f907000001be0024
:102b90000800be000ef8070010003700e00f5000dc
:102ba000e08f58000f003c008101780003f0a10085
:102bb00000017800e00f5100e08f59006a003200f8
:102bc00010022000709288000801be000800be00bc
:102bd000f6f707000001be00e2f807000004be009f
:102be00061003700478cde00cf8cde00e00f540020
:102bf000e08f5c000f003a006044b800040037002a
:102c0000000040008180480061044400e0844c00e2
:102c10000400200005082000818162000401780082
:102c2000e00f5100e08f5900f5ff320061041400fd
:102c3000e0841c00f807b1000980b1008101780030
:102c4000f307b200000178000200be000170a0008e
:102c50000808a30002003200000040008180480004
:102c60008984d1000884d30000004000818048009e
:102c70009401200002002000031020006055b800dd
:102c80006066b8000c0341008d834900800f53003b
:102c9000818f5b0006003c000606410087864900e4
:102ca00006005000878058000a0541008b854900c6
:102cb00000004000818048008301d1000281d300e0
:102cc0000402e900efff3a00e00f5000e08f5800e7
:102cd0001b0032000226240023da2000000020001e
:102ce00001f82300b1f707000200200003f82300d9
:102cf00054f707000000e000110035000226240010
:102d000023da20000000200001f82300b0f70700bc
:102d10000200200003f823004af707000000e0004b
:102d20000300340062054500e0854d0004003700d3
:102d30006000b800610065000005450081854d0018
:102d4000c744dd00080020000000200001f023003f
:102d500008044000898448008b85d1000a85d3008f
:102d60000804450089844d000800be004f06be00df
:102d70004f05be004f04be00000006000001be006b
:102d80008300780001f0a100020078000000060036
:102d90000000fa0068815700cfb8970006050700c9
:102da0000080fa0000000600430007009f000700b3
:102db000710307002604070050040700a70307005b
:102dc0001005070089050700300537000000fa00ec
:102dd00068815700cfb89700f70407000080fa0019
:102de0000000060034000700630307001804070012
:102df00042040700990307007c05070023053700fc
:102e00000000fa0068815700cfb89700ef04070070
:102e10000080fa0000000600a10707005a0807001a
:102e2000f50807000b090700ad083700810178009d
:102e30000002780030417800b14f510002003a00a2
:102e40000204e000f9ff3a009480fb001380fb00cd
:102e50000080500000000600800078000400370069
:102e60003104e00002003a000000510000000600ba
:102e7000010178000108a300f9ff3a008101780000
:102e800031017800f4ef2f00020242000281ea00d3
:102e9000020162000408280004016100f7ff32000b
:102ea00083007800010178003104e000fdff3a0062
:102eb0000000510000000600ec874700889fbe001c
:102ec0008a9fbe008c9fbe008e1f7800000678008f
:102ed00001047800180790002805900098067800f3
:102ee000cdb79f00b80590001202780092029000c2
:102ef00022039000b20390000400be000601be0051
:102f00004f18de006011b8008000eb00d0b79f00c2
:102f1000e1b79f00f2b79f0083bf9f008004780055
:102f20000900e000060032006000b8006011b8003f
:102f30000402500085825800060359008783590017
:102f40000e00e000020035000d10a100cdb79f007b
:102f50000900e00005003a004fb097000028a300e8
:102f600002003a000038a300020032008a00e900a3
:102f7000010037008a007800f8815700a200200085
:102f8000080078005f0307000900e00003003a0032
:102f9000cfb097000128a300080032000000e9002c
:102fa00000814500b1c2b3000900e0000100320019
:102fb000d1c2b30001497800060037000138a300f0
:102fc000040032000000e9008080450002c2b30026
:102fd00082487800480190000201e9000001510098
:102fe000808045004fb297008a0178000c0078007d
:102ff000490507009c0090000188a30004003200ee
:1030000098009000810f500001003d000100780001
:103010004f0778004f06be004f05be004f04be00ac
:10302000cf00b10000000600000006002f04b00031
:10303000889fbe008a9fbe008c9fbe008e1f7800b6
:10304000b09f9f00a1a79f00a37f9f001100780061
:10305000d0a79f0091009000f1a79f00afa197001b
:10306000a3019000c3a79f002fa2970044029000e5
:10307000a49f9f00afa2970035079000120478002c
:103080009204900022059000b20590006022b800e2
:103090006033b8000800be000a01be000513070037
:1030a0000000e00003003d000bf0a200d0c2b3001e
:1030b000040037005fa397000628a3000800320031
:1030c000b0c2b300004f7800cfa397008703e90098
:1030d00087af9f0010002000e0a79f000f0037007f
:1030e000dfa097000138a3000800320000c2b3003f
:1030f000004f78004fa197000201e90082af9f00c6
:1031000013002000e3a79f00040037004fa29700a0
:1031100084af9f008002eb00e5a79f000800be007f
:103120000a01be00c0ff0700f4ff2f00f5ff2f00cb
:10313000f6ff2f00f7ff2700040260008582600081
:1031400006036100878361006000b8000200200070
:1031500003ff27000020e10001a8e10002b0e10028
:1031600003b8e10010003a002f7b97008600fb00b7
:103170001104b100efa3970007004700f98f50003a
:1031800002003e00212321000100370061232100bd
:10319000820c0700602321002fff0700efa097009b
:1031a00001014000140037000020e10001a8e10007
:1031b00002b0e10003b8e100120036002f79970059
:1031c0008200fb001104b100efa19700030047004b
:1031d000f98f500002003e00a123210001003700ba
:1031e000e12321006d0c0700e02321001aff0700f6
:1031f0006fa29700040140005fa29700cfa1970043
:10320000490237006022b8006033b8000800be00f1
:103210000a01be00a71207000000e00068003200ab
:103220006000b8000200200003ff2300d0af9f0021
:10323000e1af9f00f2af9f0083b79f008006eb00d5
:103240000802be000a03be0094b79f00a5b79f0006
:10325000b6b79f00c7b79f00070037008d06e8008c
:103260000800be000a01be00d0af9f00e1af9f0082
:10327000f2af9f0083b79f006022b80006002000d5
:10328000470224005fa89700efa897007fa9970046
:103290008fb197000d1407000004be000205be00a8
:1032a0000002be000203be001fb09700afb097003f
:1032b0003fb19700cfb197007e1207000000e000f9
:1032c000e6ff3d000006eb005fac9700efac970017
:1032d0007fad97008fb597002500370040ed2f0098
:1032e000808f560019003d000c00e00016003a00e7
:1032f0006022b80006002000073524001fb09700a8
:10330000afb097003fb19700cfb19700ef13070020
:103310000002be000203be0094b79f00a5b79f0045
:10332000b6b79f00c7b79f006022b8000600200014
:10333000073524000800be000a01be00e3130700a1
:103340000004be000205be001c0020006022b80080
:1033500006002000470224000800be000a01be004b
:103360002b1307000004be000205be008d06e90015
:103370000802be000a03be001fb09700afb097005e
:103380003fb19700cfb197004a1207000000e0005c
:10339000d2ff35000800be000a01be00d0af9f007a
:1033a000e1af9f00f2af9f0083b79f001fb497006b
:1033b000afb497003fb59700cfb59700080037002e
:1033c0006022b8000600200007ff2300d4af9f0052
:1033d000e5af9f00f6af9f0087b79f008006eb0028
:1033e000af7a97000500fb002e0c0700b07f9f000e
:1033f0007fa39700600020000600e0000100350078
:103400007fa0970071c6b300bf7b970081cf5300a8
:103410000a003a00ffa097000100e000cb01320053
:10342000cb0137008d0f5000cf013c0090b79f00bb
:1034300052c6b300e2cf9f001e003700bf7997004d
:10344000e3cf9f000200370064c6b300e4cf9f00c3
:103450000000e80090b79f0060c6b300efca970075
:1034600080cf520013003a000d00e00008003d003c
:103470006000b8000200200003ff2300d0af9f00cf
:10348000e1af9f00f2af9f0083b79f008006eb0083
:1034900061c6b300e1cf9f0070c6b3003f799700cb
:1034a000804f5100030032009fb197008d81410091
:1034b00093b79f005faa9700efaa97007fab970092
:1034c0008fb39700d4b79f00e5b79f00f6b79f0072
:1034d00087bf9f000800be000a01be0090af9f009a
:1034e000a1af9f00b2af9f00c3af9f000006eb00eb
:1034f0000802be000a03be00e49f9f00f59f9f00e4
:1035000086a79f0097a79f00310037005fb2970002
:10351000efb297007fb397008fbb97001fa897006b
:10352000afa897003fa99700cfa99700b81207004e
:10353000601607000004be000205be000612070068
:1035400080027800b5a79f005fb29700efb29700a6
:103550007fb397008fbb97000800be000a01be0032
:103560005a1307001faa9700afaa97003fab970016
:10357000cfab9700551207000002be000203be0049
:1035800007f0a20094af9f00a5af9f00b6af9f00c9
:10359000c7af9f006022b800060020004702240049
:1035a0005fb09700efb097007fb197008fb9970099
:1035b000971207000002be000203be00d4b79f00ae
:1035c000e5b79f00f6b79f0087bf9f000c06e80095
:1035d0009fb29700850f5600ccff35006f9c970077
:1035e000ff9c97000fa597009fa597006022b80049
:1035f00006002000470124005fb09700efb097005d
:103600007fb197008fb99700301307000002be000a
:103610000203be00d4b79f00e5b79f00f6b79f0036
:1036200087bf9f001fa89700afa897003fa99700ea
:10363000cfa997009f1107000000e0000f003500a0
:103640005fb29700efb297007fb397008fbb9700f0
:103650001fa89700afa897003fa99700cfa9970090
:10366000941107000000e00011003a00bfa297008b
:103670000508a300080032000d0037006000b80004
:103680006011b800d0b79f00e1b79f00f2b79f006c
:1036900083bf9f00060037006022b8006033b80087
:1036a000d4b79f00e5b79f00f6b79f0087bf9f0084
:1036b0005fb29700efb297007fb397008fbb970080
:1036c0000800be000a01be00061207000002be008c
:1036d0000203be0094af9f00a5af9f00b6af9f004e
:1036e000c7af9f006022b8000600200047022400f8
:1036f0005fa89700efa897007fa997008fb1970068
:10370000f21207000004be000205be000002be0067
:103710000203be001fa89700afa897003fa997001b
:10372000cfa99700681107000000e00009003500ec
:103730008d06e80060c6b300efca970080cf520044
:1037400008003a001fb397000603e80096b79f00f1
:10375000110037005fac9700efac97007fad97008a
:103760008fb5970050c6b3006fc99700804f5100c6
:1037700009003a000802be000a03be00d4b79f0049
:10378000e5b79f00f6b79f0087bf9f008002eb0060
:10379000d5af9f00070037000800be000a01be0039
:1037a000d0b79f00e1b79f00f2b79f0083bf9f0093
:1037b000ddaf9f006fa697000001eb00b2a79f004e
:1037c000c29f9f00e29f9f009d9f9f00680037005f
:1037d0005fb29700efb297007fb397008fbb97005f
:1037e0001fa89700afa897003fa99700cfa99700ff
:1037f00007120700af1507000004be000205be0057
:1038000055110700e90f500001003400900020001e
:10381000dfa197000348a3000c003a000000e0007d
:103820000a003a0071c6b3003f7a9700814f5200f8
:1038300006003a00dfaa97000500e00003003d0003
:103840003fa397008606e80021003700cf9b970032
:103850000700e0000c003a00dfa897000100e0003c
:1038600009003d000c014700e1c2b30001497800a6
:103870000c06e8000fa997000201e90082af9f0043
:1038800013002000c39f9f000c014700bfa69700b4
:103890000300370001c3b300015978008d06e90029
:1038a0000d00e000fbff3a003fa29700040646002f
:1038b0008c00470005c3b300854840000c06e800b3
:1038c0000480ea000fab97000003430086af9f001f
:1038d0005fb29700efb297007fb397008fbb97005e
:1038e0000800be000a01be00781207001faa970058
:1038f000afaa97003fab9700cfab970073110700bb
:103900000002be000203be0007f0a20094af9f00b9
:10391000a5af9f00b6af9f00c7af9f006022b80061
:1039200006002000470224005fb09700efb0970028
:103930007fb197008fb99700b51107000002be0054
:103940000203be00d4b79f00e5b79f00f6b79f0003
:1039500087bf9f00dfaa97008502e900d5af9f00cf
:103960006f9b97000603e800e69f9f00bda79f009e
:10397000ef9b97001fb09700808f530005003d001c
:10398000afa097004100900065005000800f5600e6
:103990008fff39009f9e97004f9997000200e0002b
:1039a00007003a00dfa197000348a300040032009b
:1039b0000c004700e1c2b300014878000c06e800a3
:1039c0000c0047000048eb0051c6b3006fca9700d7
:1039d000814f520036003a00af9a97008500e90007
:1039e000010147000049eb008001eb000d00e00001
:1039f00002003d008d06ea00130020002200200096
:103a0000810378008faa9700000478000b0037002c
:103a10008103780007034700a4002000110009007b
:103a20008406d800010278008006780000c3b30045
:103a3000004b42000201e9008502e9008700e9002d
:103a40000d00e000f2ff3a000200e000f0ff3c0051
:103a500085af9f000800780001024700b2c2b300a2
:103a60000300e00001003200d2c2b300024a780035
:103a70000101e90082004700af7997000302fb00d3
:103a80001404b10053c6b300f90f520001003e0008
:103a900053c4b300834878000faa97000482e9005a
:103aa00084af9f00820f560001003d003b0a0700d3
:103ab000dfa2970063806200e20f500015003a0019
:103ac0000fab97000600e000120034000e007800f3
:103ad000e1fc0700060037008fab97008700470026
:103ae0008080400000014700924878000000e90013
:103af000efa09700810f5000f7ff3d000100470045
:103b00000fa9970001032000030907000001eb0043
:103b1000c2a79f000e007800cffc07005fa29700ad
:103b2000cfa19700000178008e0078003f989700a1
:103b3000790207004f0778004f06be004f05be0010
:103b40004f04be002f04b10000000600100020004a
:103b5000e48f460033fe3d0090b79f0053c6b3008c
:103b6000e3cf9f0053fe37000d00e00036fe350026
:103b700090b79f0046fe37000200fa00889fbe0003
:103b80008a9fbe008005780001047800020078005a
:103b9000180190002805900098007800b1bf9f00a0
:103ba000b80490000200e000020035000110a100fe
:103bb000b1bf9f00ea815700820020008a00780090
:103bc000100278009002900020039000b003900053
:103bd000080078004b0007003fb99700f000610033
:103be000040032000000e9008080440002c3b300fa
:103bf000824878003fb99700e80061000400320075
:103c00000000e9008080440002c2b30082487800ce
:103c1000480190000201e900000151008080440049
:103c20003fba97008a0178000b0078003a0207003b
:103c30009b0090000188a3000400320098009000cf
:103c4000810f500001003d00010078004f05be00cb
:103c50004f04be000080fa0000000600ea8747001b
:103c6000889fbe008a9fbe008e1f780000047800e7
:103c7000030078007287570084e2260055c72600ab
:103c8000049fbe00c3962200030f78006c87570084
:103c9000004feb0011059000a10490009105780001
:103ca0000200e00002003200020778000100370045
:103cb000728757000000e00002003a000e00780012
:103cc00065fc07000a00e000030035008a0f500081
:103cd000010036000a0078000b02780089017800a4
:103ce000000178008e007800080078000a020700c2
:103cf0004f0778004f05be004f04be00af00b10073
:103d000000000600f4874700889fbe008a9fbe001f
:103d10008c9fbe008e1f78000605be000404be0006
:103d200081bf9f0082b79f00f3b79f00b000900053
:103d3000e1b79f001301780092b79f0090069000b2
:103d4000400090000000e900000678000d00e0004f
:103d500001003d001d002000efb1970000804100f0
:103d60000048eb001e0020001f0037000c06e90091
:103d70000fb09700cf80de006109b900a0b79f00a7
:103d8000b1b79f00c2b79f00d3b79f000203be0028
:103d90000002be000800be000a01be000e130700ac
:103da00000077800efb097000c80400003c3b30019
:103db000034847008d06e9000fb897000000e900ae
:103dc00080bf9f002fb29700bfb297004fb39700fc
:103dd000dfb397000800be000a01be00f71207001b
:103de0000205be000004be000c00e0000d0034001f
:103df000e00f5400e08f5c00e00f5d00e08f5d009d
:103e0000daff3a000d00e000d8ff3c008fb89700c1
:103e10000100e000030034001fb197000218a30066
:103e2000d2ff3a000e00e00002003a00ffb1970016
:103e30001340a1000c0078004f0778004f06be0029
:103e40004f05be004f04be004f01b1000000060048
:103e50000200fa00889fbe008a9fbe00000578001d
:103e6000010478000200780018019000a804900076
:103e700098007800b1bf9f00b80590000200e000f4
:103e8000020035000110a100b1bf9f00ea81570078
:103e9000a2002000890078001002780090029000b3
:103ea00020039000b00390000800780095ff070001
:103eb000480190000201e9000001510080804500a6
:103ec0003fba9700890178000a0078009201070044
:103ed0009a0090000188a30004003200980090002e
:103ee000810f500001003d00010078004f05be0029
:103ef0004f04be000080fa0000000600fa87470069
:103f0000889fbe008a9fbe008c9fbe008e1f7800d7
:103f10008004780001047800820578001801900080
:103f20002805900018077800b80090000200e00013
:103f3000020035000e10a100010037001200200021
:103f400070006700e0b79f000b0032001b02780092
:103f50009b0290002b039000bb039000e00f5200e7
:103f6000e08f5a00e00f5b00e08f5b000200320040
:103f70008a86e900010037008a067800e8026700b7
:103f8000f5b79f00010032008d06e9001b027800a2
:103f90009b0290002b039000bb039000e4af9f00b6
:103fa000f5af9f0086b79f0097b79f004806900027
:103fb0000c06e9000c8040000048eb00efb29700cf
:103fc0007fb297008903780081047800d8af9f0002
:103fd000020478008bbf9f008a05780003457800b3
:103fe0002b0037000c06e9006fab97006f006300f1
:103ff000e90f500002003c000003b0000100370050
:104000007005b0000a03fb001604b100f90f53005d
:104010000c003e00000378000650a0001606b10018
:10402000f90f530007003e00b4b79f00a5b79f00eb
:10403000c7b79f0022090700cfb39700afb2970020
:104040003fb297000c834400004b78000804e9005d
:104050008d06e9006fa89700ffa897000fb19700a1
:104060009fb19700460020008301d1000281d30058
:104070008180d3000080d3000603e900faff3a00f4
:10408000e0af9f00f1af9f0082b79f0093b79f0002
:10409000e10f56000f0034006fa89700ffa89700ab
:1040a0000fb197009fb19700e00f5000e08f5800cc
:1040b000e00f5900e08f5900caff3a000800e00005
:1040c000c8ff3c000d00e000020034000e18a30001
:1040d000c4ff3a0089007800f4b79f008704780095
:1040e0005fac97008a4178000b0578008fbd970080
:1040f0000500e000140032001b0278009b029000d3
:104100002b039000bb039000e4af9f00f5af9f002e
:1041100086b79f0097b79f00e00f5200e08f5a00cc
:10412000e00f5b00e08f5b00070032000c06e90047
:104130000c804000034878000c06e9000c80400029
:1041400002c3b30002487800ffb297000500e00008
:10415000040032000c06e9000c80400002c2b300eb
:1041600002487800480190000201e9000c0151006a
:104170008c8040000e0278008a01780009007800e7
:10418000e5000700990090000188a30004003200b8
:1041900098009000810f500001003d000100780060
:1041a0004f0778004f06be004f05be004f04be000b
:1041b000af01b10000000600820178000101780023
:1041c000f1ff2700d3083700be0637003c00fa0095
:1041d0008f017800c303b1001d0009008019eb00b6
:1041e000c0a79f0080b79f00400e2200b0b79f007d
:1041f00040fc2f000f004000b80807000080fa00c4
:1042000000000600881f78000004780000082000e5
:10421000808f50001a00350010082000808f500059
:104220000d00340030082000808f500014003a0048
:104230009200780068805000000978001002780031
:104240009002900020039000b0039000049cbe00f8
:104250000694be0008003700920278006480520085
:104260000009780090009000100078009b0e070075
:10427000009cbe000294be00100020000100370028
:104280000000eb004f0478000000060084082000c6
:10429000848f50001d0032000d003c0014082000e7
:1042a000848f50002700320002003c0004082000e8
:1042b0000400370024082000848f500036003200ac
:1042c00044082000848f500047003a003a0037002d
:1042d000040a2000848f50002900320004003c00b2
:1042e00004092000848f50003f003a002a00370064
:1042f000020c2000828f500033003200020f200099
:10430000828f500038003a002f0037009380e90078
:104310000200e00005003200810978001102fb0074
:10432000cfa2de00612bb9002c0037008109780094
:10433000114278000482fb008002eb006033b80079
:104340002600370013027800e40052000200e0006b
:104350000600320081097800110278009102900075
:104360004fabde00860378001c003700810978001f
:1043700011027800910290006033b80017003700f6
:104380009380e9008109780011027800cfa2de0055
:10439000612bb9001100370093027800e8805200c9
:1043a00081097800110278009102900021039000a9
:1043b000b1039000090037009380e9000200e0009b
:1043c00002003200efff37009380e9008109780096
:1043d000110278008002eb006033b8000498be0040
:1043e0000690be00100005000000050044082000f3
:1043f000848f50002500320008003c001408200083
:10440000848f50001400320024082000848f500054
:1044100024003200040820000c00370004092000aa
:10442000848f50001f00320004003c0084082000ec
:10443000848f500024003a000e003700040a200048
:10444000848f500011003200040c2000848f500033
:104450001d003a000d0037009380e90081097800c3
:104460009100780001087800cf91de008288be00bc
:10447000140037009380e9008109780091007800ea
:1044800001087800824878000e0037009380e90028
:10449000810978009100780001087800820878008e
:1044a000080037009380e9008109780091007800c6
:1044b000010878006112b900612bb9008498be0030
:1044c0008690be001000050000000500889fbe0019
:1044d000000478004800900082047800808f540027
:1044e000010036008004780009017800580090002f
:1044f0008206070058009000090040005004980010
:10450000c800900089845000490498000048eb00de
:104510004f04be0000000600f2874700889fbe00df
:104520008a9fbe008c9fbe008e1f7800800478009a
:1045300001057800020478008305780061076200b5
:1045400002003a008b0f540008003900080178007f
:104550008a00780009007800790b07008b0f54005f
:1045600002003900880578001e00370008865500d3
:104570000c017800f00f5600010036000201200007
:10458000010220007e805700630607008c06780039
:104590000500370002012000fe8057000900780066
:1045a000670b0700f0865600ef8f5600f9ff3e00bc
:1045b0004461de0000ff2f008091b9000c01410032
:1045c000fe805700090078005d0b07000e00e00038
:1045d00004003a00080178008a0078000900780099
:1045e000570b07000b0078004f0778004f06be00fe
:1045f0004f05be004f04be002f01b10000000600b1
:104600000000050000000500000005000001780022
:104610000040eb008080fb008180400043202100af
:1046200081814100134278000404e00004003a0054
:104630005020210081004000114078000000060059
:1046400092017800934f520005003a00502021005b
:1046500081004000114078000309e80001003700a4
:104660000040e800ea4f5000eaff36000000060074
:10467000f6874700889fbe008a9fbe008c9fbe00c1
:104680008e1f78000005780001047800830578000b
:10469000040678000000eb00c0b79f008080eb00ac
:1046a000d1b79f00e0b79f00f2b79f00000820003d
:1046b00080bf9f0098007800010078008004eb0024
:1046c000010037008904e800304178000204e0006e
:1046d0000300320053c2b300834f5100f9ff3a0088
:1046e0000900e00004003200090178000a007800a7
:1046f000130b0700188c44001807780050c2b30051
:104700009e4f10003f013a000e07e8000e0c7800a3
:1047100010003700cfb097000100a0000b00370059
:10472000cfb097000110a00008003700cfb097006d
:104730000120a00005003700cfb097000130a00095
:1047400002003700cfb097000140a000c1b79f0022
:10475000000ce8001800780090407800b2c2b30066
:1047600082cf5000f1ff320007003c0002c2b300cc
:1047700082cf5000f0ff320032c2b30082cf50002f
:1047800007003a00efff3700d2c2b30082cf5000db
:10479000e0ff320002c3b30082cf5000e0ff3200de
:1047a000a2c2b30082cf50000d003a00000ce80016
:1047b0001c80e900000e780010007800e0b79f0030
:1047c0000000e0000f003d00cfb097000100a20004
:1047d000c1b79f000000ea00e0b79f000900370062
:1047e00064050700e0b79f0001003700000ce800f7
:1047f000180078009000fb000103b100e98f500021
:10480000faff36004fb097000008a3000200320004
:104810000010a100c0b79f0018007800e1c2b300eb
:1048200090cf100016003a008000eb00d1b79f0037
:104830000000e800000c7800a1c2b30090cf100087
:1048400006003a00000ce8001c80e900000e780029
:1048500010007800d0b79f00090037004505070019
:10486000d0b79f0001003700000ce8001800780066
:104870009000fb000103b100e98f5000faff360001
:104880000800780061ff0700804678001800780073
:104890001000fb000307070091062000810f500065
:1048a0003800320012003c0041062000810f500009
:1048b000340032000a003c0011062000810f500035
:1048c0002000320031062000810f5000a00032008d
:1048d00051022000810f5000bc003a00b4003700a4
:1048e00071062000810f5000b8003c00880037009e
:1048f00001072000810f50005c00320007003c00df
:10490000e1062000810f50007a003200f1062000fd
:10491000810f5000ad003a003900370051072000e8
:10492000810f50002700320081072000810f5000c6
:104930004200320031072000810f5000a3003a00ee
:104940008f0037008d80fb000c01780000fe2f00e7
:104950000f0040002bfe07000000e000a80032001e
:1049600018007800000ce8009041780002fe2f004b
:104970000f014100f88057000a00780021ff07006e
:104980000e0037008d80fb008c01780012002000a3
:1049900000fe2f000f0040003cfe07000000e0007a
:1049a00097003200180ce80002fe2f000f014100b2
:1049b000f88057000a0078003ff90700808444001f
:1049c000900037008d80fb008c0178000001eb0027
:1049d00000fe2f000f0040002cfe07000000e0004a
:1049e00087003200180ce80002fe2f000f01410082
:1049f000f88057000a00780015fd0700efff370028
:104a00008d80fb008c0178000001eb0000fe2f0080
:104a10000f0040001dfe07000000e000780032009b
:104a2000180ce80002fe2f000f014100f88057002b
:104a30000a00780050fc0700e0ff37008d80fb0083
:104a40008c0178000001eb0000fe2f000f004000f9
:104a50000efe07000000e000690032001800780038
:104a6000000ce800904178001c0037008c017800b1
:104a70000001eb00010f200000fe2f000f0040009e
:104a800002fe07000000e0005d003200180ce800a4
:104a90000fb097009fb097002fb19700bfb197005c
:104aa000e00f5000e08f5800e00f5900e08f5900f0
:104ab00009003a00cfb597006fb49700c01f2100de
:104ac000e5f807000b027800880178000001780003
:104ad000c11f21004700370083c7b30002fe2f002b
:104ae0000f014100f88057000a00780003fd07001d
:104af000b2ff37000b8144008d80fb008c017800f1
:104b000000fe2f000f00400038fe07003c00370079
:104b10008d80fb000c01780000fe2f000f0040008c
:104b2000b8fd07000000e0003500320018007800f2
:104b3000000ce8009041780002fe2f000f014100b8
:104b4000f88057000a00780038f907009bff37000b
:104b500000c8b30080cf560029003a00180ce800c6
:104b60001c80e900000e780010407800e0df9f0014
:104b700013002000e2fd2f000f0141000800370064
:104b800000c8b30080cf56001d003a00180ce800a2
:104b90001c80e900000e78008001eb001001780015
:104ba000f88057000a0078002cfc070083ff3700cc
:104bb00000c8b30080cf560011003a00180ce8007e
:104bc0004fb29700efb19700080037000e0c780045
:104bd0000000eb00c0b79f00e0b79f000080eb0033
:104be000d0b79f000002eb00840178001200200083
:104bf000212021000a00780047fe07006fff3700e0
:104c0000180ce800090078004f0778004f06be0036
:104c10004f05be004f04be006f01b100000006004a
:104c20008200fa00889fbe008a1f78000005780085
:104c300082047800c13f9f000004eb0010003700a1
:104c40000902780088017800a2f72f000f014100c7
:104c500081f72f008f8040000a00780084fe070053
:104c600008004000880f500004003d00b004200000
:104c7000709288000084eb00040037000004780084
:104c80004f3897001004e000edff3a00080078006c
:104c90004f0578004f04be000080fa0000000600b7
:104ca0000200fa00889fbe0081047800820078002c
:104cb000030178003104900099060700e10f4000dd
:104cc0000b003200a2002000e680570008007800a8
:104cd000e6050700809cbe008294be001000200004
:104ce000dfb89700810f540001003a00e0ff2f0069
:104cf0004f04be000080fa0000000600ea8747006b
:104d0000889fbe008a9fbe008c9fbe008e1f7800c9
:104d1000000478000105780083bf9f00a205900081
:104d200042009000e0b79f00b2049000830078003a
:104d30001106780008007800be0107008fb89700c0
:104d40008c0840000b00e00004003a006fb09700b0
:104d50000000e900f0b79f0001003700fbb79f009b
:104d6000ad0020000007eb001b0037007808900022
:104d7000b8109000810f500003003100b085fb0097
:104d8000700c98000800370008007800eb0407005a
:104d900080057800e18f450003003a000c00e00038
:104da0005e003c00710037000c00e0000c003a008f
:104db000b0022000808f550003003200d002200096
:104dc000808f550006003a008b4c78008fb8970012
:104dd0009108e8001e0020000e0678004800370009
:104de0008e0f56002a003a000c07e800ea8f5600a2
:104df00004003a0000032000808f550023003a0091
:104e000020003700e88f560020003a008b00780021
:104e10000150a00080072000808f50001b003a0046
:104e2000f808900038109000808f50000300310087
:104e30003180fb00710c98000200370008007800f8
:104e4000be040700b81090000100e000030032002b
:104e5000f80890008100e900710c9800eb0307004e
:104e60000000e000140032000c8644000b4e780075
:104e70000fb897001008e8000e0678000d0120001a
:104e80001f0037008d002000010037000007eb00f5
:104e900000fd2f000b004000e90f50000d00360010
:104ea000f08f560004003a000b007800d70307008b
:104eb0000000e0000d003a00381090000000e00013
:104ec00016003200780890000000e900700c98008d
:104ed00012003700e88f560004003a0070032000eb
:104ee000808f550001003400ad0020000c8044008c
:104ef0000b4878000c06e8008fb897009108e8008e
:104f00007fb09700800f560004003d00efb097007f
:104f10000100e900800f560094ff35000c86440024
:104f2000004eeb00ea8f560005003a000d017800b4
:104f3000f6805700090078004c0507000400370090
:104f40000d017800f680570009007800430507003e
:104f5000009dbe000295be001b0020005fb09700c0
:104f6000808f540001003a00ebff2f000b00780007
:104f70004f0778004f06be004f05be004f04be002d
:104f8000af00b10000000600e6874700889fbe0022
:104f90008a9fbe008c9fbe008e1f780000047800a0
:104fa0000105780003067800220790004200900077
:104fb00080bf9f00b20490009c0578000800780034
:104fc0001c0107000b0e40000e00e00002003a003a
:104fd0008fb897000107e900890678008005eb008b
:104fe0001c003700f808900038109000808f5000a7
:104ff000030031003180fb00710c9800070037007e
:10500000080078004d040700e10f400003003a005b
:105010000b00e00015003c002100370001fd2f00cf
:1050200080804000e78f5000070036003810900065
:105030000000e0000d003200780890000000e90058
:10504000700c980009003700805e78008b05e8003e
:105050001c0ee8008e8f550004003d008fb89700ad
:105060000100e900808f5500deff35008b8544008c
:10507000804deb0082002000f2805700090078008c
:10508000f6040700009dbe000295be00100020003f
:10509000ffb09700818f540001003a00e0ff2f001d
:1050a0004f0778004f06be004f05be004f04be00fc
:1050b0006f00b100000006008000780010002000a2
:1050c00002022000828f500004003200e98050006c
:1050d000e48f5000010036000000eb0000000600e5
:1050e000889fbe008a9fbe008c9fbe008e1f7800e6
:1050f0000004be000205be00840678000a00e0003d
:10510000040032001b06780008007800c900070080
:105110008c0d4000290790008004eb00220037002e
:1051200078089000b8109000810f50000300310003
:105130003086fb00700c98000800370008007800eb
:10514000fe03070000067800e10f460003003a0066
:105150000900e00018003a00210037000a00e000d2
:105160000b0032000c007800d3ff07000000e000c5
:1051700007003200381090000000e0000e003200fe
:10518000780890000000e900700c98000a003700d1
:105190000d00e00002003200098046000c48780053
:1051a0008904e8009b0de8000e00e000dcff3200ff
:1051b0008e8f5400daff35000d00e000040032004d
:1051c0000a00e0000200320089864600804eeb00b3
:1051d00009f0a7008904ea000906ea004f66de002c
:1051e0000c0078004f0778004f06be004f05be0048
:1051f0004f04be00000006000200fa00889fbe00b7
:105200008104780082007800030178003104900066
:1052100043050700e10f40000b003200a200200010
:10522000e6805700080078008c040700809cbe00d0
:105230008294be0010002000dfb89700810f540058
:1052400001003a00e0ff2f004f04be000080fa008a
:1052500000000600e8874700889fbe008a9fbe00c6
:105260008c9fbe008e1f7800000478000105780036
:1052700083067800a205900042009000f0b79f00de
:10528000b20490001d06780008007800690007004d
:105290008c0e40000b00e00004003a00ffb09700c5
:1052a0008100e90081bf9f00010037008bbf9f0094
:1052b000090778000006eb003900370078089000f5
:1052c000b8109000810f500003003100b085fb0042
:1052d000700c98000800370008007800970307005a
:1052e00080057800e18f450003003a000c00e000e3
:1052f00032003c003e0037000b007800c30207007c
:105300000000e00023003a00e10f56001a003a00c6
:105310000b0078006304070081072000810f500014
:1053200015003a0000c3b300994f100012003a0074
:10533000f808900038109000808f50000300310072
:105340003180fb00710c98000200370008007800e3
:105350007a030700b81090000100e000030032005b
:10536000f80890008100e900710c9800a70207007e
:105370000000e00007003a00381090000000e00054
:105380000e003200780890000000e900700c9800d0
:105390000a0037000b5f78000c06e8009d0ee8005d
:1053a0000fb89700800f560004003d00ffb0970033
:1053b0000100e900800f5600c0ff35000c86440054
:1053c000004eeb0002012000f48057000900780035
:1053d00022040700009dbe000295be001b002000b5
:1053e0006fb09700808f540001003a00ebff2f0050
:1053f0000b0078004f0778004f06be004f05be0037
:105400004f04be008f00b10000000600800078004d
:105410001000200002022000828f500004003200a1
:10542000e9805000e48f5000010036000000eb00de
:1054300000000600889fbe00000478008004eb0096
:105440000b003700f1ff07000000e00007003a0002
:10545000381090000000e000100032007808900042
:105460000000e900700c98000c0037008904e80087
:10547000f808900038109000808f50000300310031
:105480003180fb00710c9800eeff370008007800b7
:105490002a030700e10f4000eaff3a000900780004
:1054a0004f04be0000000600889fbe008a1f7800df
:1054b0000004be00190078001000fb00d3ff0700b5
:1054c0000005eb000000e000090032000800780051
:1054d000d8ff0700000578001900e800800c78006c
:1054e0001000fb00c9ff07000000e000faff3a00cf
:1054f0000a0078004f0578004f04be000000060047
:105500001801fa00889fbe008a9fbe008c9fbe00d3
:10551000000578000104780083057800040678000f
:1055200068004700040009000018eb0072079800ab
:1055300000082000000f9800880078000a0078001a
:10554000d9ff070080067800190037007a0890001c
:10555000ba109000810f500003003100b084fb00ae
:10556000700d9800050037000a007800f30207006c
:1055700080047800e18f44000700320018007800b2
:105580001000fb00808f5400030032003a1090009e
:10559000e9ff2f00100137009b0de800180ce80010
:1055a000880078000a007800bfff07008086460068
:1055b00018007800904078000104e00003003200f9
:1055c00052c2b30082cf5000e0ff3a009b8d4600ec
:1055d00051c2b30090cf10008b013a000000e800e8
:1055e000000c78008000eb0061079800210f990003
:1055f000a1c2b30090cf100003003a00000ce800f5
:1056000011002000210f990018007800d90107002f
:10561000600798006102b900612bb9000a007800a8
:10562000a102070001003700000ce8001800780014
:105630009000fb000103b100e98f5000faff360033
:1056400008007800f1fb0700804678001800780019
:105650001000fb009303070091062000810f50000b
:105660003900320015003c0031062000810f500047
:10567000a10032000a003c00b1052000810f50005b
:10568000db00320011062000810f5000880032003c
:1056900051022000810f50005a013a00ba00370031
:1056a00041062000810f50001900320071062000d1
:1056b000810f500053013c007d003700010720009e
:1056c000810f50005900320007003c00e106200025
:1056d000810f500066003200f1062000810f50005b
:1056e00048013a003d00370051072000810f50006b
:1056f0002600320081072000810f50004500320053
