:020000040000fa
:080000000001040000000000f3
:020000040000fa
:040008007e02000074
:020000040000fa
:04000c007e02000070
:020000040000fa
:040010007e0200006c
:020000040000fa
:040014007e02000068
:020000040000fa
:040018007e02000064
:020000040000fa
:04001c007e02000060
:020000040000fa
:040020007e0200005c
:020000040000fa
:040024007e02000058
:020000040000fa
:04002800fe010000d5
:020000040000fa
:04002c007e02000050
:020000040000fa
:040030007e0200004c
:020000040000fa
:040034007e02000048
:020000040000fa
:040038007e02000044
:020000040000fa
:04003c007e02000040
:020000040000fa
:040040007e0200003c
:020000040000fa
:040044003602000080
:020000040000fa
:040048007e02000034
:020000040000fa
:04004c007e02000030
:020000040000fa
:040050007e0200002c
:020000040000fa
:040054007e02000028
:020000040000fa
:040058007e02000024
:020000040000fa
:04005c007e02000020
:020000040000fa
:040060007e0200001c
:020000040000fa
:040064007e02000018
:020000040000fa
:040068001a02000078
:020000040000fa
:04006c007e02000010
:020000040000fa
:040070007e0200000c
:020000040000fa
:040074007e02000008
:020000040000fa
:040078007e02000004
:020000040000fa
:04007c007e02000000
:020000040000fa
:040080007e020000fc
:020000040000fa
:040084007e020000f8
:020000040000fa
:04008800c8010000ab
:020000040000fa
:04008c007e020000f0
:020000040000fa
:040090007e020000ec
:020000040000fa
:040094007e020000e8
:020000040000fa
:040098007e020000e4
:020000040000fa
:04009c007e020000e0
:020000040000fa
:0400a0007e020000dc
:020000040000fa
:0400a4007e020000d8
:020000040000fa
:0400a8007e020000d4
:020000040000fa
:0400ac007e020000d0
:020000040000fa
:0400b0007e020000cc
:020000040000fa
:0400b4007e020000c8
:020000040000fa
:0400b8007e020000c4
:020000040000fa
:0400bc007e020000c0
:020000040000fa
:0400c0007e020000bc
:020000040000fa
:0400c4007e020000b8
:020000040000fa
:0400c8007e020000b4
:020000040000fa
:0400cc007e020000b0
:020000040000fa
:0400d0007e020000ac
:020000040000fa
:0400d4007e020000a8
:020000040000fa
:0400d8007e020000a4
:020000040000fa
:040108007e02000073
:020000040000fa
:04010c007e0200006f
:020000040000fa
:040110007e0200006b
:020000040000fa
:040114007e02000067
:020000040000fa
:040118007e02000063
:020000040000fa
:04011c007e0200005f
:020000040000fa
:040120007e0200005b
:020000040000fa
:040124007e02000057
:020000040000fa
:04012800fe010000d4
:020000040000fa
:04012c007e0200004f
:020000040000fa
:040130007e0200004b
:020000040000fa
:040134007e02000047
:020000040000fa
:040138007e02000043
:020000040000fa
:04013c007e0200003f
:020000040000fa
:040140007e0200003b
:020000040000fa
:04014400360200007f
:020000040000fa
:040148007e02000033
:020000040000fa
:04014c007e0200002f
:020000040000fa
:040150007e0200002b
:020000040000fa
:040154007e02000027
:020000040000fa
:040158007e02000023
:020000040000fa
:04015c007e0200001f
:020000040000fa
:040160007e0200001b
:020000040000fa
:040164007e02000017
:020000040000fa
:040168001a02000077
:020000040000fa
:04016c007e0200000f
:020000040000fa
:040170007e0200000b
:020000040000fa
:040174007e02000007
:020000040000fa
:040178007e02000003
:020000040000fa
:04017c007e020000ff
:020000040000fa
:040180007e020000fb
:020000040000fa
:040184007e020000f7
:020000040000fa
:04018800c8010000aa
:020000040000fa
:04018c007e020000ef
:020000040000fa
:040190007e020000eb
:020000040000fa
:040194007e020000e7
:020000040000fa
:040198007e020000e3
:020000040000fa
:04019c007e020000df
:020000040000fa
:0401a0007e020000db
:020000040000fa
:0401a4007e020000d7
:020000040000fa
:0401a8007e020000d3
:020000040000fa
:0401ac007e020000cf
:020000040000fa
:0401b0007e020000cb
:020000040000fa
:0401b4007e020000c7
:020000040000fa
:0401b8007e020000c3
:020000040000fa
:0401bc007e020000bf
:020000040000fa
:0401c0007e020000bb
:020000040000fa
:0401c4007e020000b7
:020000040000fa
:0401c8007e020000b3
:020000040000fa
:0401cc007e020000af
:020000040000fa
:0401d0007e020000ab
:020000040000fa
:0401d4007e020000a7
:020000040000fa
:0401d8007e020000a3
:020000040000fa
:100200002f8420000eff20000e0188000000000057
:10021000000020000000e000020032000001200089
:100220002002880014000700b60007000000e0006c
:1002300003003a0000a8210001002000020037005e
:100240000000200001002000810f7000010032003a
:1002500014000700000020000000e000020032004f
:100260000000020000000000bc19020000000000b5
:100270000040da000000fe004440a90020012000f8
:100280000000e0000300320000002000a001880010
:100290004440a800000006008a1f78008b1f7800e9
:1002a0000000060091018800800478000000eb0047
:1002b0001a003700e284440032a0b4009905ba0065
:1002c000e284440032a0b4009906ba00e2844400fb
:1002d00032a0b4000006eb00476fde00fd07b2005d
:1002e000636ce10003003a00ebff07000000eb0045
:1002f0000a003700606ce10004003a00005deb008a
:100300008b05e900fdff3e00040037006168e10055
:10031000010032000086eb000b00070019c7ba008d
:100320001905ba000e04e00003003a000a00e000dc
:10033000e0ff3a0000000600fe07b2009e018800c0
:100340008a047800f5ff3700395dba008b05e900b3
:100350000c003200295dba008b05e900080032006c
:100360000c00e00003003a00e284440032a0b40034
:10037000f5ff370019ddba008b05e900faff3a00f6
:100380008904e800e184440032a0b40000000600c3
:100390003600f800809fbe00829fbe00849fbe0092
:1003a000869fbe003400f80000002000a0018800f5
:1003b0000000fa008700a900d30b0700c70b070055
:1003c000260a0700e04080000000e800e0408800c6
:1003d0004001200000408800d10b07000080fa0097
:1003e0003400f9004f03be004f02be004f01be00b3
:1003f0004f00be003600f90000400600801f780064
:100400003400f80000002000a00188000000fa007d
:100410008400a9008c00a90013e1a800500020006e
:10042000f04088000080fa003400f9004f007800a6
:1004300000400600801f78003400f8000000200013
:10044000a00188000000fa008600a9008e00a90023
:1004500013e1a80060002000f04088000080fa004e
:100460003400f9004f00780000400600809fbe0075
:100470003400f80000002000a00188000000fa000d
:1004800084e0a900d11680000010200000806000e8
:100490000000e00006003200f0408000e50f500050
:1004a00003003a00e0012000004088000900370006
:1004b000a0168000610060000000e000050032002e
:1004c000f0408000e60f500002003a008002200059
:1004d000004088000a21ef0013e1a9008c00a80069
:1004e0008e00a8008400a9008600a9000080fa0000
:1004f0003400f9004f00be00004006000040da0062
:100500000000fe0000000500140020009a023700e1
:100510000001be001c0007000470a70003f0a1004a
:1005200003f8a30013003a006509b100100032007f
:10053000090035006928e1000200350001002800ab
:100540000000050000004000818048008502e900ad
:10055000fcff3a0000000600f88f4200050035005d
:100560008100d1000080d3008502e800fcff3a0042
:10057000000006008000eb00000005004f89de004f
:100580008201780097023700c70ade00f107b20047
:10059000f50fb20008003200e1cf42000200320045
:1005a0000170a00024000500810f700001003200de
:1005b0000408050044000500810f700002003a00a5
:1005c000140005008502e9000000400081c04800d9
:1005d000fcff3b000170a00024000500889fbe00c6
:1005e0008a9fbe008c9fbe001b0020000202be003e
:1005f0000586680006002800060666004709de003a
:10060000f20fb200820032000243e80080003200a4
:10061000c729de00f30fb2007d0032000343e8007b
:100620007b003200f107b2000170a000f507b200b4
:100630000570a000c708dd004903de008680700059
:100640004700dd00c72add004923de0086827200f4
:100650004722dd0003055100040350008583580044
:100660000300310000004000818048000a05e900d5
:100670008c1f78008a9fbe000400500085805800bf
:100680000402420085824a00000040008180480048
:100690000005eb000004be006033b8000406be0095
:1006a0000d48e10056003100110009004dccd80082
:1006b0000c01b8000d02b8008481410060824a003c
:1006c0008283530003045c0084845c0060055d0049
:1006d0000a00e00025003a00800578000d40e100a6
:1006e00049003100880078000700780011000900f7
:1006f0004d88d8000c01b8000d02b800848141007b
:1007000060824a006003110083835b0004045c0084
:10071000e0845c000900e00021003a004f01be00c7
:100720000300e0002b003200e301600007067300c5
:100730008c81710001003200640070004200de0014
:100740004e5edd000c007000c258de0001e0a0002b
:1007500083010700cf017800818071004f06be0041
:100760004f05be004f04be00000006008c8343000e
:100770000d044c00e0844c0060054d000000e900d1
:100780000a00e000d4ff32008c8343000d044c00cb
:10079000e0844c0060054d000000e900ceff37000a
:1007a0000c0343008d834b0060044c00e0844c003c
:1007b0000000e9000900e000d8ff32000c0343000c
:1007c0008d834b0060044c00e0844c000000e90085
:1007d000d2ff37004200de004e5edd000c007000ec
:1007e000c258de0001e0a000cf0178000300e00065
:1007f000daff320060001000e0801800d7ff3700f9
:10080000f0ff2f00aaff3700f0ff2f00b9ff3700dd
:100810000404be002f010700870678000004fd00d5
:100820008104fd002b010700078366000678a30002
:10083000030032000960a7000800be002c0037004a
:100840000d78a300020032000800be002800370027
:100850000778a30026003a0001f0a10009f0a100ea
:100860000668a30003003200f1ff2700f0ff2f000d
:10087000baff37000d68a300030032000800be0075
:100880008c807000b5ff37000768a30007003a00ae
:100890000648a30003003200f1ff2700f0ff2f00fd
:1008a000aeff37000d48a300030032006000b8001f
:1008b0008c807000a9ff37000748a30004003200b5
:1008c00001f82700000020008c807000a3ff370093
:1008d000760107000004fd008104fd000205780098
:1008e000720107000802be008a01780059ff370034
:1008f0000160a000120220000241880097ff37002b
:100900000100e000120032000500e000100032009b
:10091000889fbe008a9fbe008c9fbe000006eb0031
:1009200001f8a3000300320060001000e08018000e
:100930000cf0a00005f8a3000300320060021200d2
:10094000e0821a000cf0a2008005eb0041ff3700a6
:100950006000b8000200050003836800070028005b
:1009600007036300470ade000480a100c71ade0007
:100970000580a100f70f20000720e10042003200af
:100980000728e10040003200889fbe008a9fbe0019
:100990008c1f7800f107b200f307b2000400e000fa
:1009a000640032000170a0000500e0006800320021
:1009b0000370a00085054200eb07b1000204b800f7
:1009c0000302b8008484440060854a00020ab8002b
:1009d000848444000a854a00030ab80004054500df
:1009e000040033000804d0008984d2000a85d200b4
:1009f0008b05e9006158e1003d0035000210200040
:100a0000090161000308200089816100f7072000c7
:100a10008783640008867300c84cde00c853dd007d
:100a2000878474004855de000300e00006003200b1
:100a300082037600040032008904e80060054d005e
:100a40000a88a3000c003a00f70f20000758e100c5
:100a500044003d000a70a100c75ddd000a857500f5
:100a60008a007300090078004f0678004f05be0029
:100a70004f04be00000006000a05d1008984d3009f
:100a80008b05e800f0ff3700881f78000604780027
:100a900090000700070278000001fd008101fd00c1
:100aa0008c00070087027800850372000778a30096
:100ab000050032000001fd008101fd009f000700dc
:100ac0004f04780000000600850372000748a30069
:100ad00003003200f0ff2f00f1ff2700f8ff37007e
:100ae0000000200001f8270088807000f4ff370024
:100af000880178004848dd00808171004848de00a8
:100b0000c850dd0001007000c850de000604780007
:100b10000b0178001600070088807000d2ff3700b4
:100b20000500e00005003200170020003a00070031
:100b30009dff370081037000f9ff3a0086007800be
:100b40004f0678004f05be004f04be0000000500b0
:100b500083037100f9ff3200270020002e000700f8
:100b600094ff370001f8270086807000f4ff3700fb
:100b70000100e00026003200610111007810e10060
:100b800023003c006022b8007010e1000400350032
:100b900080027800010078008000eb0070015100b5
:100ba0000200e0000900340070031100062add0095
:100bb000822ade008603dd00878272000200de00ea
:100bc000860bdd00070070008208de008481710062
:100bd000f4ff270004826200848171000400280071
:100be000848262006102600005f0a6000000060039
:100bf00004827100070032000000e800e080480035
:100c0000000006000002be006000b800efff3700e1
:100c10006000b80000000600889fbe000004eb00e2
:100c20006138e10016003a000100e00008003a00d7
:100c3000c800de004800dd00880020000100e00060
:100c400003003a00c800de004800dd0068044400ec
:100c50008184cf00e9845400060034008908dd0057
:100c6000f08314008703de00878070000900dd0038
:100c700009044400610214004f04be000000060095
:100c80000300e00008003a00c811de004811dd0052
:100c9000880020000300e00003003a00c811de00d5
:100ca0004811dd00680444008384cf00e9845400c7
:100cb000060034008919dd00f08314008713de007c
:100cc000878171000911dd0009044400e10214006c
:100cd000e9ff37002700200001f0a70017002000df
:100ce000470bde00f60fb200040032000643e800b6
:100cf0000a0032004702b30000000600010378003a
:100d0000f607b2000603700002003a000703b300c2
:100d1000000006008702b30000000600010378000f
:100d2000f607b20006037000020032000770a00050
:100d3000000006000760a000000006000478a30081
:100d4000040032000578a300030032000168a3000c
:100d500001003a000200be000160a0000000060091
:100d600081017000270032008002eb0001f8a3002f
:100d70000300320060001000e08018001500200021
:100d8000f40720000202420020003400f703200094
:100d900087036000060420000003630002082000af
:100da000000161004700de00c909dd00008071001c
:100db000c708de000600e00008003200870371006b
:100dc000060032001000b0000180b0000188a300ce
:100dd00002003200c108de000402e800f107b200a0
:100de000f30f20000320e10003003d004722dd0057
:100df000810072002900370001f827000000eb0095
:100e0000260037006000b8000000060068021200eb
:100e10007f20e100020034006000b8001f003700ae
:100e20006011b8007020e1000400350080017800f6
:100e3000010078008000eb00700252000400e00026
:100e400009003400f00312000719dd008419de00e8
:100e50000703dd00868171000400de00070bdd0062
:100e6000060070008408de00f7ff2700838363001c
:100e700087037100060028000303630007003200a7
:100e80000700e00003003a00610160000281730086
:100e9000020032001000b0000180b0000500a60082
:100ea0000000060001f0a000000006004f0ade006e
:100eb0004709de00f107b200f20fb2000b0032006a
:100ec000f207b1000170a000c708dd00c901de0013
:100ed000838070004700dd000400a60000000600cb
:100ee00060001000e080180000000600810f700014
:100ef00001003a00000006008182cf000500e000fa
:100f000010003e008082cf00ee8242007028e10097
:100f10000400390007003e00800078000000eb006c
:100f20000e003700708312008600de000500dd0031
:100f30000a003700708352008600dd000000eb00dd
:100f400006003700e28252008508dd00708312003f
:100f50000603de00868070000500dd007507b00026
:100f60000501ea000400a600000006006000100071
:100f7000e080180000000600889fbe008a9fbe0027
:100f8000841f78007c0007004f00780011003300b8
:100f9000f0ff2f00838f6c0006003b000405650006
:100fa0000a00a7000800370009f0a6001000200082
:100fb00008003700820f5400838f5c000300390063
:100fc0001000200001003e000000200009f0a700f2
:100fd0000000ea004f05be004f04be000000e00024
:100fe00000000600881f7800030478000300e0007a
:100ff00007003d0060001000e0801800600119004b
:10100000e081190002003b0001f02d0003003700d1
:101010000400070008f0a70001f0a0004f047800ca
:1010200000000600889fbe008a9fbe0000827000fc
:101030000402710004827100260032000004be0028
:101040000200be006011b8006b092000950220006c
:101050000182cf000a0039000541b1000082cf00b3
:10106000070039000541b1000982cf0004003900b2
:101070000541b1000882cf00010039000541b100ef
:1010800005425200120032000a003b0082817100ca
:10109000610164008100d1000080d3008984d30005
:1010a0000884d3008b05e8000442e800f7ff3a000b
:1010b000070037000804440089844c000000480001
:1010c000818048008b05e9000442e900f9ff3a00fd
:1010d000030007004f05be004f04be0000000600dd
:1010e00081002000618055000b003d000b002000b6
:1010f00061fe2f000100e1001d00340082817100bb
:10110000610164008904d1000884d3000000e80074
:10111000faff3a00710020006100640003007000d3
:10112000020060000900320061044400e0844c00c9
:101130000988a500050032008b05e8006808e10079
:1011400002003a008904d1000884d300f20f200085
:101150000258e10005003d00c75ddd00f907b2005f
:101160008980750008007800000006000bf8270051
:101170008b007800000005000004be0002fd07009f
:101180000003be000405be000200be00fefc070016
:10119000844f7500000006000000fa0068815700c7
:1011a000cfb89700e20107000080fa0000000600b7
:1011b000060007005e0007000f0107003701070067
:1011c0009000070032020700dd013700ec8747007e
:1011d000889fbe008a9fbe008c9fbe008e1f780035
:1011e0000006780001047800180790002805900098
:1011f00098067800cdb79f00b80590003202be0077
:101200002203be000400be000601be004f18de002f
:101210006011b8008000eb00d0b79f00e1b79f00dd
:10122000f2b79f0083bf9f00800478000900e000b0
:10123000060032006000b8006011b80004025000df
:101240008582580006035900878359000e00e0008c
:10125000020035000d10a100cdb79f000900e0008d
:1012600005003a004fb097000028a30002003a00a2
:101270000038a300020032008a00e90001003700b4
:101280008a007800f8815700a2002000080078004a
:10129000860007000900e00003003a00cfb0970085
:1012a0000128a300080032000000e9000081450089
:1012b000b1c2b3000900e00001003200d1c2b300a6
:1012c00001497800050037000138a300030032000f
:1012d0000000e90001c2b300817578004801900068
:1012e0000201e90000015100808045004fb29700e3
:1012f0008a0178000c007800300207009c00900002
:101300000188a3000400320098009000810f500073
:1013100001003d00010078004f0778004f06be0035
:101320004f05be004f04be00cf00b1000000060014
:101330000200fa00889fbe008a9fbe0080057800e8
:101340000104780002007800180190002805900040
:1013500098007800b1bf9f00b80490000200e00040
:10136000020035000110a100b1bf9f00ea815700c3
:10137000820020008a0078003002be002003be00f8
:1013800008007800490007003fb99700f0006100ad
:10139000030032000000e90001c3b300817478004b
:1013a0003fb99700e8006100030032000000e90047
:1013b00001c2b30081747800480190000201e90085
:1013c00000015100808044003fba97008a017800f4
:1013d0000b007800f90107009b0090000188a30032
:1013e0000400320098009000810f500001003d0081
:1013f000010078004f05be004f04be000080fa00d7
:1014000000000600ea874700889fbe008a9fbe0052
:101410008e1f780000047800030078007287570060
:1014200084e2260055c72600049fbe00c396220012
:10143000030f78006c875700004feb0011059000f8
:10144000a1049000910578000200e0000200320043
:101450000207780001003700728757000000e000a3
:1014600002003a000e0078004e0407000a00e00077
:10147000030035008a0f5000010036000a00780092
:101480000b02780089017800000178008e00780056
:1014900008007800c90107004f0778004f05be001b
:1014a0004f04be00af00b10000000600f487470003
:1014b000889fbe008a9fbe008c9fbe008e1f780052
:1014c0000605be000404be0081bf9f0082b79f00d6
:1014d000f3b79f00b0009000e1b79f0013017800c0
:1014e00092b79f0090069000400090000000e90035
:1014f000000678000d00e00001003d001d00200006
:101500008040eb00efb19700817178001e00200051
:101510001f0037000c06e9000fb09700cf80de00f7
:101520006109b900a0b79f00b1b79f00c2b79f0083
:10153000d3b79f000203be000002be000800be0039
:101540000a01be0054050700000778000e4078002d
:101550000043b000efb0970080707e008d06e90078
:101560000fb997000201e90082bf9f002fb29700d8
:10157000bfb297004fb39700dfb397000800be00db
:101580000a01be003d0507000205be000004be00c2
:101590000c00e0000d003400e00f5400e08f5c0010
:1015a000e00f5d00e08f5d00daff3a000d00e00023
:1015b000d8ff3c008fb997000300e000030034001f
:1015c0001fb097000018a300d2ff3a000e00e00001
:1015d00002003a00ffb097001140a1000c00780013
:1015e0004f0778004f06be004f05be004f04be00f7
:1015f0004f01b100000006000200fa00889fbe0003
:101600008a9fbe000005780001047800020078007f
:1016100018019000a804900098007800b1bf9f00c6
:10162000b80590000200e000020035000110a100a2
:10163000b1bf9f00ea815700a20020008900780016
:101640003002be002003be000800780097ff0700ac
:10165000480190000201e90000015100808045002e
:101660003fba9700890178000a007800530107000b
:101670009a0090000188a3000400320098009000b6
:10168000810f500001003d00010078004f05be00b1
:101690004f04be000080fa0000000600fa874700f1
:1016a000889fbe008a9fbe008c9fbe008e1f780060
:1016b0008004780001047800820578001801900009
:1016c0002805900018077800b80090000200e0009c
:1016d000020035000e10a1000100370012002000aa
:1016e00070006700e0b79f00090032003b02be00b7
:1016f0002b03be00e00f5200e08f5a00e00f5b00aa
:10170000e08f5b00020032008a86e90001003700aa
:101710008a067800e8026700f5b79f0001003200f2
:101720008d06e9003b02be002b03be00e4af9f0024
:10173000f5af9f0086b79f0097b79f0048069000bf
:101740000c06e9000040eb0080707e00efb29700cd
:101750007fb297008903780081047800d8af9f009a
:10176000020478008bbf9f008a057800034578004b
:101770002a0037000c06e9006fab97006f0063008a
:10178000e90f500002003c000003b00001003700e8
:101790007005b0000a03fb001604b100f90f5300f6
:1017a0000c003e00000378000650a0001606b100b1
:1017b000f90f530007003e00b4b79f00a5b79f0084
:1017c000c7b79f0096030700cfb39700afb297004b
:1017d0003fb2970080747e000804e9008d06e9009e
:1017e0006fa89700ffa897000fb197009fb19700cf
:1017f000460020008301d1000281d3008180d30004
:101800000080d3000603e900faff3a00e0af9f0032
:10181000f1af9f0082b79f0093b79f00e10f560082
:101820000f0034006fa89700ffa897000fb1970032
:101830009fb19700e00f5000e08f5800e00f590073
:10184000e08f5900cbff3a000800e000c9ff3c00e0
:101850000d00e000020034000e18a300c5ff3a009e
:1018600089007800f4b79f00870478005fac970088
:101870008a4178000b0578008fbd97000500e000d5
:10188000100032003b02be002b03be00e4af9f00fd
:10189000f5af9f0086b79f0097b79f00e00f5200fb
:1018a000e08f5a00e00f5b00e08f5b000500320024
:1018b0000c06e90083707e000c06e90000c3b3004b
:1018c00080707e00ffb297000500e0000300320048
:1018d0000c06e90000c2b30080707e004801900051
:1018e0000201e9000c0151008c8040000e027800da
:1018f0008a01780009007800b00007009900900084
:101900000188a3000400320098009000810f50006d
:1019100001003d00010078004f0778004f06be002f
:101920004f05be004f04be00af01b100000006002d
:101930008201780001017800f1ff27003f033700a2
:1019400084082000848f50001d0032000d003c00f0
:1019500014082000848f50002700320002003c0051
:10196000040820000400370024082000848f500061
:101970003400320044082000848f500043003a00b5
:1019800036003700040a2000848f50002700320000
:1019900004003c0004092000848f50003b003a0002
:1019a00028003700020c2000828f50002f003200e8
:1019b000020f2000828f500034003a002b003700c5
:1019c0009380e9000200e000050032008109780000
:1019d0001102fb00cfa2de00612bb9002800370006
:1019e00081097800114278000482fb008002eb003c
:1019f0006033b8002200370013027800e400520080
:101a00000200e00005003200810978001102be00ea
:101a10004fabde008603780019003700810978009b
:101a20001102be006033b800150037009380e90052
:101a30008109780011027800cfa2de00612bb90085
:101a40000f00370093027800e88052008109780087
:101a50003102be002103be00090037009380e90077
:101a60000200e00002003200f1ff37009380e9003d
:101a700081097800110278008002eb006033b80021
:101a80000498be000690be0010000500000005008e
:101a900044082000848f50002500320008003c00dc
:101aa00014082000848f5000140032002408200005
:101ab000848f500024003200040820000c003700fe
:101ac00004092000848f50001f00320004003c00f5
:101ad00084082000848f500024003a000e00370054
:101ae000040a2000848f500011003200040c2000f2
:101af000848f50001d003a000d0037009380e900ec
:101b0000810978009100780001087800cf91de000b
:101b10008288be00140037009380e90081097800b4
:101b20009100780001087800824878000e003700a4
:101b30009380e9008109780091007800010878001d
:101b400082087800080037009380e9008109780056
:101b500091007800010878006112b900612bb9008a
:101b60008498be008690be001000050000000500ad
:101b7000889fbe000004780048009000820478002e
:101b8000808f54000100360080047800090178003d
:101b9000580090001802070058009000090040000b
:101ba00050049800c80090008984500049049800af
:101bb0000048eb004f04be0000000600f28747001b
:101bc000889fbe008a9fbe008c9fbe008e1f78003b
:101bd000800478000105780002047800830578000d
:101be0006107620002003a008b0f540008003900c0
:101bf000080178008a00780009007800dcff0700ff
:101c00008b0f540002003900880578001e00370051
:101c1000088655000c017800f00f560001003600d0
:101c200002012000010220007e805700f901070018
:101c30008c0678000500370002012000fe80570066
:101c400009007800caff0700f0865600ef8f5600a3
:101c5000f9ff3e004461de0000ff2f000091b90053
:101c600002014600fe80570009007800c0ff07000f
:101c70000e00e00004003a00080178008a007800b5
:101c800009007800baff07000b0078004f077800c2
:101c90004f06be004f05be004f04be002f01b1002d
:101ca000000006000000050000000500000005001f
:101cb000000178000040eb008080fb008180400044
:101cc000a382200063c278000404e00003003a000d
:101cd000b082200060c07800000006009201780009
:101ce000934f520004003a00b082200060c0780098
:101cf0000309e800010037000040e800ea4f500007
:101d0000edff360000000600f6874700889fbe0002
:101d10008a9fbe008c9fbe008e1f78000005780051
:101d20000104780083057800040678000000eb00c9
:101d3000c0b79f008080eb00d1b79f00e0b79f0045
:101d4000f2b79f000008200080bf9f009800780035
:101d5000010078008004eb00010037008904e800ee
:101d6000304178000204e0000300320053c2b300a7
:101d7000834f5100f9ff3a000900e00004003200ef
:101d8000090178000a00780079ff0700188c4400e8
:101d90001807780050c2b3009e4f10003f013a0070
:101da0000e07e8000e0c780010003700cfb0970047
:101db0000100a0000b003700cfb097000110a00079
:101dc00008003700cfb097000120a00005003700c1
:101dd000cfb097000130a00002003700cfb09700cd
:101de0000140a000c1b79f00000ce8001800780077
:101df00090407800b2c2b30082cf5000f1ff3200b1
:101e000007003c0002c2b30082cf5000f0ff320056
:101e100032c2b30082cf500007003a00efff370014
:101e2000d2c2b30082cf5000e0ff320002c3b30041
:101e300082cf5000e0ff3200a2c2b30082cf500038
:101e40000d003a00000ce8001c80e900000e78004c
:101e500010007800e0b79f000000e0000f003d0098
:101e6000cfb097000100a200c1b79f000000ea00b8
:101e7000e0b79f000900370039010700e0b79f0075
:101e800001003700000ce800180078009000fb000b
:101e90000103b100e98f5000faff36004fb0970000
:101ea0000008a300020032000010a100c0b79f008c
:101eb00018007800e1c2b30090cf100016003a007d
:101ec0008000eb00d1b79f000000e800000c780014
:101ed000a1c2b30090cf100006003a00000ce80049
:101ee0001c80e900000e780010007800d0b79f0039
:101ef000090037001a010700d0b79f000100370022
:101f0000000ce800180078009000fb000103b1000d
:101f1000e98f5000faff36000800780064ff0700e0
:101f200080467800180078001000fb00b50107001b
:101f300091062000810f50003800320012003c0052
:101f400041062000810f5000340032000a003c009e
:101f500011062000810f50002000320031062000c1
:101f6000810f5000a000320051022000810f50006c
:101f7000bc003a00b400370071062000810f500009
:101f8000b8003c008800370001072000810f500096
:101f90005c00320007003c00e1062000810f500089
:101fa0007a003200f1062000810f5000ad003a00a7
:101fb0003900370051072000810f50002700320000
:101fc00081072000810f50004200320031072000bd
:101fd000810f5000a3003a008f0037008d80fb0076
:101fe0000c01780000fe2f000f004000b801070030
:101ff0000000e000a800320018007800000ce800a3
:102000009041780002fe2f000f014100f880570038
:102010000a00780024ff07000e0037008d80fb00c7
:102020008c0178001200200000fe2f000f004000fd
:1020300043fe07000000e00097003200180ce800a3
:1020400002fe2f000f014100f88057000a007800bf
:102050005efc070080844400900037008d80fb0008
:102060008c0178000001eb0000fe2f000f00400003
:1020700033fe07000000e00087003200180ce80083
:1020800002fe2f000f014100f88057000a0078007f
:1020900059fd0700efff37008d80fb008c017800b1
:1020a0000001eb0000fe2f000f00400024fe07009f
:1020b0000000e00078003200180ce80002fe2f005b
:1020c0000f014100f88057000a00780098fc0700d3
:1020d000e0ff37008d80fb008c0178000001eb00f1
:1020e00000fe2f000f00400015fe07000000e0007a
:1020f0006900320018007800000ce8009041780078
:102100001c0037008c0178000001eb00010f20005b
:1021100000fe2f000f00400009fe07000000e00055
:102120005d003200180ce8000fb097009fb09700d8
:102130002fb19700bfb19700e00f5000e08f58001b
:10214000e00f5900e08f590009003a00cfb5970021
:102150006fb4970020822000120107000b02780064
:1021600088017800000178002182200047003700b4
:1021700083c7b30002fe2f000f014100f880570013
:102180000a00780045fd0700b2ff37000b814400cc
:102190008d80fb008c01780000fe2f000f004000b6
:1021a0003bfe07003c0037008d80fb000c017800ef
:1021b00000fe2f000f004000450107000000e00076
:1021c0003500320018007800000ce80090417800db
:1021d00002fe2f000f014100f88057000a0078002e
:1021e000b1fe07009bff370000c8b30080cf560048
:1021f00029003a00180ce8001c80e900000e780065
:1022000010407800e0df9f0013002000e2fd2f0067
:102210000f0141000800370000c8b30080cf56000e
:102220001d003a00180ce8001c80e900000e780040
:102230008001eb0010017800f88057000a00780058
:1022400070fc070083ff370000c8b30080cf560042
:1022500011003a00180ce8004fb29700efb1970058
:10226000080037000e0c78000000eb00c0b79f009c
:10227000e0b79f000080eb00d0b79f000002eb00aa
:102280008401780012002000818220000a0078007a
:102290004afe07006fff3700180ce80009007800bd
:1022a0004f0778004f06be004f05be004f04be002a
:1022b0006f01b100000006008200fa00889fbe0096
:1022c0008a1f78000005780082047800c13f9f00d3
:1022d0000004eb0010003700090278008801780044
:1022e000a2f72f000f01410081f72f008f804000df
:1022f0000a00780084fe070008004000880f5000a4
:1023000004003d00b0042000004288000084eb007f
:1023100004003700000478004f3897001004e000f4
:10232000edff3a00080078004f0578004f04be002a
:102330000080fa00000006008000780010002000f5
:1023400002022000828f500004003200e980500019
:10235000e48f5000010036000000eb000000060092
:10236000889fbe008a1f7800000578000a04780064
:10237000984478000805e8000900fb00eeff07001c
:102380000000e000f9ff3a00b0c2b30080cf540073
:1023900005003200d0c2b3008000eb0080cf5400b3
:1023a00005003a00020037008000eb000100370012
:1023b000110020000804e8000000eb0003003700d3
:1023c0006a02b900020052000003b0003801fb00ad
:1023d00003fd2f0082814100e98f5100f8ff360094
:1023e0000100e00001003a000000ea004f0578001b
:1023f0004f04be0000000600800178000200370094
:10240000b15978000201e9000200e000fcff3a0047
:1024100000000600889fbe008a9fbe0080047800ee
:102420000200e0005b00320001407800814c78003f
:1024300082814400f1f99f00e20f510055003600ff
:1024400091449800a1449800e1f99f00d1f99f00c0
:10245000e60f51004f003600b1449800c1f99f00cb
:10246000e80f51004b0036000905ea0063056500de
:102470000a8444000a055100c1ff2f0001056500d0
:102480000080fb008000eb001210200013102000e1
:10249000db000700008cbe000a01440060b99f0009
:1024a00071b99f00e80f55003a00360020049800eb
:1024b00031049800400498005104980020b99f000e
:1024c00031b99f0040b99f0051b99f00f80f5500e6
:1024d000300036006004980071049800000c9800e9
:1024e000110c9800200c9800310c9800400c9800ba
:1024f000510c980020b19f0031b19f0040b19f0066
:1025000051b19f0060b19f0071b19f0000b99f0061
:1025100011b99f0064016400780141000204440085
:10252000020555006011b8000203be000002be00a3
:102530000403be006022b8000000720081807200b7
:10254000020173008381730010003700009cbe00fd
:102550000294be0040049800510498006204980060
:1025600073049800000c9800110c9800220c98003d
:10257000330c9800400c9800510c9800620c9800a5
:10258000730c98000a02b1000802b000ff0f55005a
:10259000eeff3e00090078004f05be004f04be006c
:1025a0000000060080007800040037003104e000dd
:1025b00002003a000000510000000600010178000e
:1025c0000108a300f9ff3a00810178003101780089
:1025d000f4ef2f00020242000281ea0002016200d1
:1025e0000408280004016100f7ff3200830078002e
:1025f000010178003104e000fdff3a0000005100c5
:1026000000000600f1fb2f0080804000f98f500091
:1026100001003e000050a00000000600f9ff370056
:10262000f1f92f0080804000f98f500001003e003a
:10263000f005b20000000600f9ff3700f2874700fe
:102640008e1f780002027800030178000000e0008d
:10265000020032000007780001003700728757003f
:102660008002eb000100e000010032008102e9007d
:1026700070805700060009000018eb000080eb0096
:1026800080bf9f002310200093bf9f00aebf9f001c
:10269000b1bf9f00c5bf9f000100e00003003d00e7
:1026a000b10420000142880006003700004feb0013
:1026b000eebf9f00debf9f0084007800708057004f
:1026c000220007004f0778002f01b100000006002c
:1026d000881f78000004780000082000808f5000d8
:1026e0001700350010082000808f50000b003400c8
:1026f00030082000808f500011003a0092007800ce
:1027000068805000000978003002be002003be003f
:10271000049cbe000694be000700370092027800b9
:1027200064805200000978001000be001500070008
:10273000009cbe000294be00100020000100370083
:102740000000eb004f047800000006000200fa00d1
:10275000881f780000047800e2bf9f006481570062
:1027600008007800d4fe0700980090000148a300fc
:10277000010032000080eb004f0478000080fa0076
:1027800000000600810378007ff707000001be000b
:102790006000b8000478a30013003a006220e10052
:1027a00015003e000d0039008301d1000281d300e5
:1027b0008180d3008301d1000281d3008180d300c6
:1027c0008301d1000281d3008180d3000538b0009d
:1027d000c42add00f300b2008381720007f0a70075
:1027e00003f0a0000000060083ff27000200200085
:1027f0006110b900f9ff370003ff2700f7ff37002a
:10280000020ab900001bb9000200b80081004200b2
:102810008100430000000600889fbe008a9fbe0022
:1028200030044200b0844a0030054b0090854b00d4
:102830006000b1000898be000a90be000440e100ac
:1028400005c8e10006d0e10007d8e1000200310030
:10285000680040001008e8004f05be004f04be00ad
:1028600000000600889fbe008a9fbe003004be00a4
:102870002005be000418540005985c0006185d0091
:1028800007985d00110020000440e10005c8e10048
:1028900006d0e10007d8e100010039008000eb001c
:1028a000108810004f05be004f04be000000060057
:1028b0001200fa00889fbe008a9fbe008c9fbe0057
:1028c000e0b79f00f1b79f0082bf9f0093bf9f00ba
:1028d0000605be000404be000000eb00d0b79f0058
:1028e000c0b79f00b0b79f00a0b79f0090b79f00f0
:1028f000000678005fb19700cfb0970082014100d9
:102900003fb097000200e00004003d0037000700e0
:102910007e805700c0ff0700030037003300070028
:102920007e805700cfff0700dfb697000d00e00064
:102930000c0035006fb29700ffb297000fbb9700f5
:102940009fbb970010002000010020006011b8001c
:10295000000272008182720002037300838373009d
:102960001b0007000c06e80001042000810f560040
:10297000e0ff3a000d00e00004003d000802be0048
:102980000a03be007e805700a3ff07005fa89700e0
:102990000000e00005003a001fb29700afb29700b8
:1029a0003fb39700cfb39700090007006fb09700bf
:1029b000ffb097000fb997009fb997004f06be0070
:1029c0004f05be004f04be000080fa000000060064
:1029d0000100070000000600a4b79f00b5b79f00e4
:1029e000c6b79f00d7b79f00000006004f09de0062
:1029f00082817100b3b79f004f01de0081804000eb
:102a000082807000a1b79f008fb097004f09de0051
:102a1000000040000200700090b79f007fa8970060
:102a20004f01de00818040008280700081b79f00ee
:102a30000d0007004f3ade00000040000400700067
:102a4000f0af9f00080007000402420085824a00a0
:102a500006034b0087834b00dfff07000802be0020
:102a60000a03be00000006002fb29700bfb2970015
:102a70004fb39700dfb3970000000600881f78006f
:102a800018002000881f780089ff07008f87e90061
:102a90004f04780000000600801feb0084ff070051
:102aa0008f87e90000000600889fbe008a9fbe0055
:102ab000e00f5000e08f5800e00f5900e08f590000
:102ac0000c003d006044b8006055b80000005400a0
:102ad00081805c0002015d0083815d0018002000a0
:102ae0001500070008003d00180007000004eb0077
:102af000050037000004eb000f00070002003d0056
:102b00001200070018002000dcff07000800e000aa
:102b1000060032006022b8006033b80000005200a6
:102b200081805a0002015b0083815b004f05be007b
:102b30004f04be0000000600e00f5200e08f5a0074
:102b4000e00f5b00e08f5b00000006006044b8000f
:102b50006055b8000402540085825c0006035d00e5
:102b600087835d0000000600889fbe008a9fbe002c
:102b70008c1f7800e00f5000e08f5800e00f5900e4
:102b8000e08f59000d003d006044b8006055b8006a
:102b90000000540081805c0002015d0083815d00c3
:102ba0001c0020000820e10009a8e1000ab0e100b3
:102bb0000bb8e1000d003d00080037000006eb00f7
:102bc000e00f5200e08f5a00e00f5b00e08f5b00e7
:102bd00006003d006044b8006055b800040254008f
:102be00085825c0006035d0087835d00aaff070005
:102bf0000c00e000060032006022b8006033b8002c
:102c00000000520081805a0002015b0083815b005a
:102c10004f0678004f05be004f04be0000000600be
:020000040000fa
:102c200043680000617200002052000065630000ec
:102c3000763a0000202500006400000025640000b2
:042c40000000000090
:020000040000fa
:102c44000000fa001228ef001428ef001628ef0005
:102c54000080fa00000006000200fa00004f78002d
:102c64009140800020802000008040001e487800b1
:102c7400904080008000e800f000280000806000a0
:102c84000000e00004003d000000e90001ff2f0007
:102c9400008070000000e80090408800b040800090
:102ca4000000e800b04088000080fa000000060040
:102cb4000200fa00a1408000208020000080400033
:102cc400104f7800a04080008000e800f000280049
:102cd400008060000000e00004003d000000e90006
:102ce40001ff2f00008070000000e800a040880071
:102cf4001e4078000080fa00000006000c00fa0074
:102d0400889fbe0040079800510798005e0090001d
:102d1400cf80de0018f6070002002000a34724003d
:102d24002df607000200200013ae240009f7070067
:102d3400020020000308240027f6070002f02f00f9
:102d4400f377240024f60700200798003107980041
:102d540018c0b3000200200003f823002e009000e6
:102d6400be009000e7f507000000e0000100340019
:102d74000044eb000804e0000500320010002000cd
:102d8400000f78000000eb00100798002f003700b8
:102d940018c0b30002002000031024002e0090008d
:102da400be009000d7f507000000e00001003400e9
:102db4000044eb000804e00005003200800020001d
:102dc400000f780010002000100798001f00370043
:102dd40018c0b30002002000032824002e00900035
:102de400be009000c7f507000000e00001003400b9
:102df4000044eb000804e000050032000004200059
:102e0400000f780020002000100798000f00370002
:102e140018c0b30002002000033824002e009000e4
:102e2400be009000b7f507000000e0000100340088
:102e34000044eb000804e00004003200001020000d
:102e4400000f780030002000100798004e0090001a
:102e5400e20f50002c003200e30f50005300320008
:102e6400e10f500079003a000021ef005e0090006d
:102e7400cf80de00c0f5070002002000a347240035
:102e8400d5f507000200200013ae2400b1f60700b8
:102e94000200200003082400cff507000004be0050
:102ea4001e007800cf80de00b3f507000001be00ed
:102eb4000800be00c8f5070094f50700000078007c
:102ec4001008880005e1a9001e0090000040780069
:102ed400634060000080fb00630060004400dd008c
:102ee40022088000f1fc2f008100610001007000c5
:102ef400200888000421a90004c1a9008460a90055
:102f040005e1a800510037000621ef005e009000a3
:102f1400cf80de0098f5070002002000a3472400bc
:102f2400adf507000200200013ae240089f6070067
:102f34000200200003082400a7f507000004be00d7
:102f44001e007800cf80de008bf507000001be0074
:102f54000800be00a0f507006cf50700000078002b
:102f64006008880011e1a9001e009000004078006c
:102f7400634060000080fb00630060004400dd00eb
:102f840082088000f1fc2f008100610001007000c4
:102f9400800888001021a90010c1a9001061a900af
:102fa40084c0a90011e1a800280037000a21ef001d
:102fb4005e009000cf80de006ff507000200200065
:102fc400a347240084f507000200200013ae240068
:102fd40060f6070002002000030824007ef50700c5
:102fe4000004be001e007800cf80de0062f50700fa
:102ff4000001be000800be0077f5070043f5070096
:10300400000078007008880013e1a9001e009000f9
:1030140000407800634060000080fb0063006000b3
:103024004400dd0092088000f1fc2f008100610063
:1030340001007000900888001221a90012c1a900a3
:1030440084e0a9008ce0a800000000004f04be004a
:103054000080fa00000006000200fa00000f780069
:103064001e007800e10f500003003200e20f500010
:103074000e0032001c00370020048000680060004d
:103084000000e00002003200ca22a800010037005c
:103094000000000020048000680060000000e000e0
:1030a400fcff32008460a9000f0037002104800077
:1030b40000042000008060000000e00002003200f4
:1030c400ca22a8000100370000000000210480008b
:1030d40000042000008060000000e000fbff3200dc
:1030e40084c0a900000000000080fa00000006006f
:1030f4000400fa00000f7800110798009e00900069
:103104001e007800fdfe07001e007800d2ff0700b5
:103114000080fa00000006000000fa00813e200052
:1031240010002000f2ff070022a2a8002342a900f9
:1031340011118000c0ff2f00008060000010a0006b
:103144001011880010118000c001b3001011880014
:1031540021e2a8000080fa00000006000200fa0044
:10316400004f780000000000001180006200600041
:103174000000e000fcff3a001e00fb002011880064
:103184000080fa00000006000400fa00100798000e
:103194001e00900000407800f0ff07000000eb00e4
:1031a400000f7800080037000000000000118000c4
:1031b400620060000000e000fcff3a000002200012
:1031c400201188001e0fe8001e007800ef0f500049
:1031d400f5ff34001e00900000407800dfff070078
:1031e4000080fa00000006000000fa00d0408000d1
:1031f4000000e800d0408800d0408000f00f50006c
:103204000400340000082000dfff07001000200045
:10321400d04088000080fa00000006001200fa0086
:103224000000eb00000f7800e14080000e80e80011
:10323400811f780001612900811f7800d5f70700fc
:10324400e487570000ccb300c4ff07000500370033
:103254000e80e8001e00400010407800bfff070009
:103264001e0fe8000e80e8001e00400010407800a9
:103274000004e000f6ff3a00d0408000804078006f
:1032840000c8b30000c04000b4ff07000080fa008b
:10329400000006000000fa008f00a800b000200023
:1032a400f01088001602a900b110800090ff2f00d2
:1032b40000806000b010880017e2a8001942a8003e
:1032c400c1108000f0f32f0000806000c01088005f
:1032d4000080fa00000006000000fa00e010800000
:1032e400004078000080fa00000006000200fa00a6
:1032f400004f78001e00fb00d01088000080fa0008
:10330400000006000000fa008f00a9008c00a9004c
:103314008e00a9000080fa00000006000000fa00f8
:103324008f00a8008c00a8008e00a8000080fa007e
:10333400000006000000fa008c00a800d902a800d2
:103344000080fa00000006000000fa008e00a800c9
:10335400d202a8000080fa00000006000000fa0073
:10336400710020002000200061ff07000080fa00a7
:10337400000006000a00fa0031fe070066ff07009d
:10338400c4ff0700ebff0700efff0700a1002000c8
:103394001000200059fe07004101200030002000e9
:1033a40056fe07000000eb0010079800ebff070033
:1033b40000408000f40f50000c003200f40f500065
:1033c40003003e00ea0f500007003200f5ff37000b
:1033d400fe0f50002500320081022000810f5000b2
:1033e4003b003200efff3700430037000000eb00e2
:1033f400000f780012003700ca02a8002cfe070054
:10340400404798004e409000ea4f500003003200bd
:103414004e409000ed4f500005003a000008200097
:1034240059ff070010002000d04088000300370037
:103434006dff07004e40900048ff07001e0fe80094
:10344400b04080009e0f5000040034009140800082
:10345400a0408000808f5000e7ff3a006fff070014
:10346400a00020000040880023003700e1408000d5
:1034740065004700811f7800e1612900811f780001
:1034840044f70700e487570008003700e5004700c9
:103494001e009000008040001040780093ff070059
:1034a4001e0090000000e80010079800e5004700a7
:1034b4001e00900000804000104078000004e000ee
:1034c400f2ff3a00a0002000004088000a00370004
:1034d400000c20002cff0700000820002aff070032
:1034e4001c28ef001a28ef004cff0700a000200062
:0c34f4000040880000000000aaff370024
:020000040000fa
:10350000000800002000000000000000200800006b
:103510000200000000000000220800001e00000061
:1035200002000000286e69006c2900002500680078
:10353000076c09004c836a009074a0007ac00000f8
:103540008068880000846c008200810040080000d0
:0c3550000200000000000000000000006d
:020000040000fa
:0200000401f009
:04000000f4bf000049
:020000040000fa
:0200000401f009
:04000400ff7f00007a
:020000040000fa
:0200000401f009
:04000800ffff0000f6
:020000040000fa
:0200000401f009
:04001400ffffff00eb
:020000040000fa
:0200000401f009
:04001800ffff0000e6
:00000001FF
